{
  "contractName": "Channel",
  "abi": [
    {
      "constant": false,
      "inputs": [
        {
          "name": "_balance",
          "type": "uint256"
        },
        {
          "name": "_signedBalanceMsg",
          "type": "bytes"
        }
      ],
      "name": "withdraw",
      "outputs": [],
      "payable": false,
      "stateMutability": "nonpayable",
      "type": "function"
    },
    {
      "constant": true,
      "inputs": [],
      "name": "startDate",
      "outputs": [
        {
          "name": "",
          "type": "uint256"
        }
      ],
      "payable": false,
      "stateMutability": "view",
      "type": "function"
    },
    {
      "constant": false,
      "inputs": [
        {
          "name": "_balance",
          "type": "uint256"
        }
      ],
      "name": "challengedSettlement",
      "outputs": [],
      "payable": false,
      "stateMutability": "nonpayable",
      "type": "function"
    },
    {
      "constant": true,
      "inputs": [],
      "name": "status",
      "outputs": [
        {
          "name": "",
          "type": "uint8"
        }
      ],
      "payable": false,
      "stateMutability": "view",
      "type": "function"
    },
    {
      "constant": true,
      "inputs": [],
      "name": "getChannelInfo",
      "outputs": [
        {
          "name": "",
          "type": "address"
        },
        {
          "name": "",
          "type": "address"
        },
        {
          "name": "",
          "type": "uint256"
        },
        {
          "name": "",
          "type": "uint256"
        },
        {
          "name": "",
          "type": "uint8"
        },
        {
          "name": "",
          "type": "uint256"
        },
        {
          "name": "",
          "type": "uint256"
        }
      ],
      "payable": false,
      "stateMutability": "view",
      "type": "function"
    },
    {
      "constant": true,
      "inputs": [],
      "name": "sender",
      "outputs": [
        {
          "name": "",
          "type": "address"
        }
      ],
      "payable": false,
      "stateMutability": "view",
      "type": "function"
    },
    {
      "constant": false,
      "inputs": [],
      "name": "afterChallengeSettle",
      "outputs": [],
      "payable": false,
      "stateMutability": "nonpayable",
      "type": "function"
    },
    {
      "constant": false,
      "inputs": [
        {
          "name": "_deposit",
          "type": "uint256"
        }
      ],
      "name": "recharge",
      "outputs": [],
      "payable": false,
      "stateMutability": "nonpayable",
      "type": "function"
    },
    {
      "constant": true,
      "inputs": [],
      "name": "challengePeriod",
      "outputs": [
        {
          "name": "",
          "type": "uint256"
        }
      ],
      "payable": false,
      "stateMutability": "view",
      "type": "function"
    },
    {
      "constant": false,
      "inputs": [
        {
          "name": "_balance",
          "type": "uint256"
        },
        {
          "name": "_signedBalanceMsg",
          "type": "bytes"
        },
        {
          "name": "_signedClosingMsg",
          "type": "bytes"
        }
      ],
      "name": "mutualSettlement",
      "outputs": [],
      "payable": false,
      "stateMutability": "nonpayable",
      "type": "function"
    },
    {
      "constant": true,
      "inputs": [],
      "name": "receiver",
      "outputs": [
        {
          "name": "",
          "type": "address"
        }
      ],
      "payable": false,
      "stateMutability": "view",
      "type": "function"
    },
    {
      "constant": true,
      "inputs": [],
      "name": "token",
      "outputs": [
        {
          "name": "",
          "type": "address"
        }
      ],
      "payable": false,
      "stateMutability": "view",
      "type": "function"
    },
    {
      "inputs": [
        {
          "name": "_receiver",
          "type": "address"
        },
        {
          "name": "_tokenAddress",
          "type": "address"
        },
        {
          "name": "_challengePeriod",
          "type": "uint256"
        }
      ],
      "payable": false,
      "stateMutability": "nonpayable",
      "type": "constructor"
    },
    {
      "anonymous": false,
      "inputs": [
        {
          "indexed": true,
          "name": "_senderAddress",
          "type": "address"
        },
        {
          "indexed": true,
          "name": "_receiverAddress",
          "type": "address"
        },
        {
          "indexed": false,
          "name": "_deposit",
          "type": "uint256"
        }
      ],
      "name": "ChannelRecharged",
      "type": "event"
    },
    {
      "anonymous": false,
      "inputs": [
        {
          "indexed": true,
          "name": "_senderAddress",
          "type": "address"
        },
        {
          "indexed": true,
          "name": "_receiverAddress",
          "type": "address"
        },
        {
          "indexed": false,
          "name": "_withdrawnBalance",
          "type": "uint256"
        }
      ],
      "name": "ChannelWithdraw",
      "type": "event"
    },
    {
      "anonymous": false,
      "inputs": [
        {
          "indexed": true,
          "name": "_senderAddress",
          "type": "address"
        },
        {
          "indexed": true,
          "name": "_receiverAddress",
          "type": "address"
        },
        {
          "indexed": false,
          "name": "_balance",
          "type": "uint256"
        },
        {
          "indexed": false,
          "name": "_receiverTokens",
          "type": "uint256"
        }
      ],
      "name": "ChannelSettled",
      "type": "event"
    },
    {
      "anonymous": false,
      "inputs": [
        {
          "indexed": true,
          "name": "_senderAddress",
          "type": "address"
        },
        {
          "indexed": true,
          "name": "_receiverAddress",
          "type": "address"
        },
        {
          "indexed": false,
          "name": "_balance",
          "type": "uint256"
        }
      ],
      "name": "ChannelChallenged",
      "type": "event"
    }
  ],
  "bytecode": "0x6060604052600060055560006006556000600755341561001e57600080fd5b604051606080610fa68339810160405280805191906020018051919060200180519150839050600160a060020a038116151561005957600080fd5b816000811161006757600080fd5b600160a060020a038416151561007c57600080fd5b61009284640100000000610dcf61018c82021704565b151561009d57600080fd5b6008805461010060a860020a031916610100600160a060020a038781168202929092179283905560009204166318160ddd82604051602001526040518163ffffffff167c0100000000000000000000000000000000000000000000000000000000028152600401602060405180830381600087803b151561011d57600080fd5b6102c65a03f1151561012e57600080fd5b5050506040518051905011151561014457600080fd5b50506000555060018054600160a060020a03338116600160a060020a03199283161790925560028054939092169216919091179055426003556008805460ff19169055610194565b6000903b1190565b610e03806101a36000396000f3006060604052600436106100a05763ffffffff60e060020a600035041663030ba25d81146100a55780630b97bc86146100c95780630eeb30dd146100ee578063200d2ed21461010457806330d281e01461013b57806367e404ce146101a9578063e584de96146101d8578063ef299b0b146101eb578063f3f480d914610201578063f4da2db414610214578063f7260d3e14610242578063fc0c546a14610255575b600080fd5b34156100b057600080fd5b6100c7600480359060248035908101910135610268565b005b34156100d457600080fd5b6100dc6103fd565b60405190815260200160405180910390f35b34156100f957600080fd5b6100c7600435610403565b341561010f57600080fd5b6101176104b7565b6040518082600381111561012757fe5b60ff16815260200191505060405180910390f35b341561014657600080fd5b61014e6104c0565b604051600160a060020a0380891682528716602082015260408101869052606081018590526080810184600381111561018357fe5b60ff16815260200183815260200182815260200197505050505050505060405180910390f35b34156101b457600080fd5b6101bc610552565b604051600160a060020a03909116815260200160405180910390f35b34156101e357600080fd5b6100c7610561565b34156101f657600080fd5b6100c76004356105ca565b341561020c57600080fd5b6100dc610774565b341561021f57600080fd5b6100c760048035906024803580820192908101359160443590810191013561077a565b341561024d57600080fd5b6101bc610897565b341561026057600080fd5b6101bc6108a6565b60025460009033600160a060020a0390811691161461028657600080fd5b836000811161029457600080fd5b600160085460ff1660038111156102a757fe5b146102b157600080fd5b6006546005546102c69163ffffffff6108ba16565b8510156102d257600080fd5b61030c338686868080601f0160208091040260200160405190810160405281815292919060208401838380828437506108cc945050505050565b600654909250610322908663ffffffff610a0516565b6006556008546101009004600160a060020a031663a9059cbb338760006040516020015260405160e060020a63ffffffff8516028152600160a060020a0390921660048301526024820152604401602060405180830381600087803b151561038957600080fd5b6102c65a03f1151561039a57600080fd5b5050506040518051905015156103af57600080fd5b33600160a060020a031682600160a060020a03167fbee844d4e77b3bcf78fcee52d77c99d2d09cb13e4f4fc45cf2bd29133341baa28760405190815260200160405180910390a35050505050565b60035481565b60015433600160a060020a0390811691161461041e57600080fd5b806000811161042c57600080fd5b600160085460ff16600381111561043f57fe5b1461044957600080fd5b60055482111561045857600080fd5b426004556008805460ff19166002908117909155600783905554600160a060020a039081169033167f625583ff26a91240423702f3f802c8f820f3f67a7d524edef6e5d73422b559868460405190815260200160405180910390a35050565b60085460ff1681565b6000806000806000806000600160009054906101000a9004600160a060020a0316600160a060020a031633600160a060020a0316148061050e575060025433600160a060020a039081169116145b151561051957600080fd5b5050600154600254600054600354600854600554600654600160a060020a039687169c969095169a5092985090965060ff169450925090565b600154600160a060020a031681565b60015433600160a060020a0390811691161461057c57600080fd5b600260085460ff16600381111561058f57fe5b1461059957600080fd5b6000546004540142116105ab57600080fd5b6002546007546105c8913391600160a060020a0390911690610a1b565b565b60015433600160a060020a039081169116146105e557600080fd5b80600081116105f357600080fd5b60085482906101009004600160a060020a031663dd62ed3e333060006040516020015260405160e060020a63ffffffff8516028152600160a060020a03928316600482015291166024820152604401602060405180830381600087803b151561065b57600080fd5b6102c65a03f1151561066c57600080fd5b505050604051805190501015151561068357600080fd5b6008546101009004600160a060020a03166323b872dd33308560006040516020015260405160e060020a63ffffffff8616028152600160a060020a0393841660048201529190921660248201526044810191909152606401602060405180830381600087803b15156106f457600080fd5b6102c65a03f1151561070557600080fd5b50505060405180519050151561071a57600080fd5b60058290556008805460ff19166001179055600254600160a060020a039081169033167f810cbf5c1b5b9c60cd779ed148131568556f4dfd4ac14ca914f7c322ecb36de48460405190815260200160405180910390a35050565b60005481565b600154600090819033600160a060020a03908116911614806107aa575060025433600160a060020a039081169116145b15156107b557600080fd5b86600081116107c357600080fd5b6005548811156107d257600080fd5b60025461081790600160a060020a0316898989806020601f820181900481020160405190810160405281815292919060208401838380828437506108cc945050505050565b9250610853838987878080601f016020809104026020016040519081016040528181529291906020840183838082843750610bba945050505050565b600254909250600160a060020a0380841691161461087057600080fd5b60015460025461088d91600160a060020a0390811691168a610a1b565b5050505050505050565b600254600160a060020a031681565b6008546101009004600160a060020a031681565b6000828211156108c657fe5b50900390565b60008060006040517f737472696e67206d73674964000000000000000000000000000000000000000081527f6164647265737320726563656976657200000000000000000000000000000000600c8201527f75696e742062616c616e63650000000000000000000000000000000000000000601c8201527f6164647265737320636f6e747261637400000000000000000000000000000000602882015260380160405180910390208686306040517f53656e6465722042616c616e63652050726f6f66205369676e0000000000000081526c01000000000000000000000000600160a060020a0394851681026019830152602d820193909352921602604d8201526061016040518091039020604051918252602082015260409081019051809103902091506109fb8285610ce5565b9695505050505050565b600082820183811015610a1457fe5b9392505050565b6000610a32600654836108ba90919063ffffffff16565b6008805460ff191660031790819055909150600160a060020a036101009091041663a9059cbb848360006040516020015260405160e060020a63ffffffff8516028152600160a060020a0390921660048301526024820152604401602060405180830381600087803b1515610aa657600080fd5b6102c65a03f11515610ab757600080fd5b505050604051805190501515610acc57600080fd5b600854600554610100909104600160a060020a03169063a9059cbb908690610af490856108ba565b60006040516020015260405160e060020a63ffffffff8516028152600160a060020a0390921660048301526024820152604401602060405180830381600087803b1515610b4057600080fd5b6102c65a03f11515610b5157600080fd5b505050604051805190501515610b6657600080fd5b82600160a060020a031684600160a060020a03167f974062f01eefac5c024e60f404f675279744b294815ae95da683537369b2c461848460405191825260208201526040908101905180910390a350505050565b60008060006040517f737472696e67206d73674964000000000000000000000000000000000000000081527f616464726573732073656e646572000000000000000000000000000000000000600c8201527f75696e742062616c616e63650000000000000000000000000000000000000000601a8201527f6164647265737320636f6e747261637400000000000000000000000000000000602682015260360160405180910390208686306040517f526563656976657220436c6f73696e67205369676e000000000000000000000081526c01000000000000000000000000600160a060020a039485168102601583015260298201939093529216026049820152605d016040518091039020604051918252602082015260409081019051809103902091506109fb82855b6000806000808451604114610cf957600080fd5b6020850151925060408501519150606085015160001a9050601b8160ff161015610d2157601b015b8060ff16601b1480610d3657508060ff16601c145b1515610d4157600080fd5b6001868285856040516000815260200160405260006040516020015260405193845260ff90921660208085019190915260408085019290925260608401929092526080909201915160208103908084039060008661646e5a03f11515610da657600080fd5b5050602060405103519350600160a060020a0384161515610dc657600080fd5b50505092915050565b6000903b11905600a165627a7a723058202ca4c072359732242d81c887d360277ce79f0ad6209263427d9b00fb77c4b61d0029",
  "source": "pragma solidity ^0.4.18;\n\nimport './ECVerification.sol';\nimport './lib/safeMath.sol';\nimport './token/Token.sol';\n\ncontract Channel is ECVerification {\n\n    using SafeMath for uint256;\n\n    uint public challengePeriod;\n    address public sender;\n    address public receiver;\n    uint public startDate;\n    uint challengeStartTime;\n\n    uint depositedBalance = 0;\n    uint withdrawnBalance = 0;\n    uint balanceInChallenge = 0;\n\n    enum State {Initiated, Recharged, InChallenge, Settled }\n    State public status;\n\n    Token public token;\n\n    modifier onlySender() {\n        require(msg.sender == sender);\n        _;\n    }\n\n    modifier onlyReceiver() {\n        require(msg.sender == receiver);\n        _;\n    }\n\n    modifier onlySenderOrReceiver() {\n        require(msg.sender == sender || msg.sender == receiver);\n        _;\n    }\n\n    modifier nonZero(uint param) {\n        require(param > 0);\n        _;\n    }\n\n    modifier nonZeroAddress(address addr) {\n        require(addr != address(0));\n        _;\n    }\n\n    event ChannelRecharged(\n        address indexed _senderAddress,\n        address indexed _receiverAddress,\n        uint _deposit);\n\n    event ChannelWithdraw(\n        address indexed _senderAddress,\n        address indexed _receiverAddress,\n        uint _withdrawnBalance);\n\n    event ChannelSettled(\n        address indexed _senderAddress,\n        address indexed _receiverAddress,\n        uint _balance,\n        uint _receiverTokens);\n\n    event ChannelChallenged(\n        address indexed _senderAddress,\n        address indexed _receiverAddress,\n        uint _balance);\n\n\n    function Channel(address _receiver, address _tokenAddress, uint _challengePeriod) \n    public \n    nonZeroAddress(_receiver) nonZero(_challengePeriod)\n    {\n        require(_tokenAddress != 0x0);\n        require(addressHasCode(_tokenAddress));\n        token = Token(_tokenAddress);\n        require(token.totalSupply() > 0);\n\n        challengePeriod = _challengePeriod;\n        sender = msg.sender;\n        receiver = _receiver;\n        startDate = now;\n        status = State.Initiated;\n    }\n\n    function recharge(uint _deposit) \n    external \n    onlySender nonZero(_deposit) \n    {\n        require(token.allowance(msg.sender, address(this)) >= _deposit);\n        require(token.transferFrom(msg.sender, address(this), _deposit));\n        depositedBalance = _deposit;\n        status = State.Recharged;\n\n        ChannelRecharged(msg.sender, receiver, depositedBalance);\n    }\n\n    function withdraw(uint _balance, bytes _signedBalanceMsg)\n    external\n    onlyReceiver nonZero(_balance)\n    {\n        require(status == State.Recharged);\n        require(_balance >= depositedBalance.sub(withdrawnBalance));\n                \n        // Derive sender address from signed balance proof\n        address senderAddress = extractBalanceProofSignature(\n            msg.sender,\n            _balance,\n            _signedBalanceMsg\n        );\n        // Update total withdrawn balance\n        withdrawnBalance = withdrawnBalance.add(_balance);\n\n        // Send the remaining balance to the receiver\n        require(token.transfer(msg.sender, _balance));\n\n        ChannelWithdraw(senderAddress, msg.sender, _balance);\n    }\n    \n    function mutualSettlement(uint _balance, bytes _signedBalanceMsg, bytes _signedClosingMsg)\n    external\n    onlySenderOrReceiver nonZero(_balance)\n    {\n        require(_balance <= depositedBalance);\n        \n        // Derive sender address from signed balance proof\n        address senderAddr = extractBalanceProofSignature(\n            receiver,\n            _balance,\n            _signedBalanceMsg\n        );\n\n        // Derive receiver address from closing signature\n        address receiverAddr = extractClosingSignature(\n            senderAddr,\n            _balance,\n            _signedClosingMsg\n        );\n        require(receiverAddr == receiver);\n\n        // Both signatures have been verified and the channel can be settled.\n        settleChannel(sender, receiver, _balance);\n    }\n\n    function challengedSettlement(uint _balance)\n    external\n    onlySender nonZero(_balance)\n    {\n        require(status == State.Recharged);\n        require(_balance <= depositedBalance);\n\n        challengeStartTime = now;\n        status = State.InChallenge;\n        balanceInChallenge = _balance;\n        ChannelChallenged(msg.sender, receiver, _balance);\n    }\n    \n    function afterChallengeSettle() \n    external \n    onlySender\n    {\n        require(status == State.InChallenge); \n        require(now > challengeStartTime + challengePeriod * 1 seconds);  \n\n        settleChannel(msg.sender, receiver, balanceInChallenge);\n    }    \n\n\n    function getChannelInfo() onlySenderOrReceiver external view returns (address, address, uint, uint, State, uint, uint){\n        return( sender,\n                receiver,\n                challengePeriod,\n                startDate,\n                status,\n                depositedBalance,\n                withdrawnBalance\n                );\n    }\n    \n    function extractBalanceProofSignature(address _receiverAddress, uint256 _balance, bytes _signedBalanceMsg)\n    internal view\n    returns (address)\n    {\n        bytes32 msgHash = keccak256(\n            keccak256(\n                \"string msgId\",\n                \"address receiver\",\n                \"uint balance\",\n                \"address contract\"\n            ),\n            keccak256(\n                \"Sender Balance Proof Sign\",\n                _receiverAddress,\n                _balance,   \n                address(this)\n            )\n        );\n\n        // Derive address from signature\n        address signer = ECVerification.ecverify(msgHash, _signedBalanceMsg);\n        return signer;\n    }\n\n    function extractClosingSignature(address _senderAddress, uint _balance, bytes _signedClosingMsg)\n    internal view\n    returns (address)\n    {\n        bytes32 msgHash = keccak256(\n            keccak256(\n                \"string msgId\",\n                \"address sender\",\n                \"uint balance\",\n                \"address contract\"\n            ),\n            keccak256(\n                \"Receiver Closing Sign\",\n                _senderAddress,\n                _balance,\n                address(this)\n            )\n        );\n\n        // Derive address from signature\n        address signer = ECVerification.ecverify(msgHash, _signedClosingMsg);\n        return signer;\n    } \n\n    function settleChannel(address _senderAddress, address _receiverAddress, uint _balance)\n    internal \n    {\n        // Send the unwithdrawn _balance to the receiver\n        uint receiverRemainingTokens = _balance.sub(withdrawnBalance);\n        status = State.Settled;\n        require(token.transfer(_receiverAddress, receiverRemainingTokens));\n\n        // Send remaining tokens back to sender\n        require(token.transfer(_senderAddress, depositedBalance.sub(receiverRemainingTokens)));\n\n        ChannelSettled(_senderAddress, _receiverAddress, _balance, receiverRemainingTokens);\n    }\n   \n    \n    function addressHasCode(address _contract) internal view returns (bool) {\n        uint size;\n        assembly {\n            size := extcodesize(_contract)\n        }\n        return size > 0;\n    }\n\n\n}",
  "sourcePath": "/home/aniket/projects/paymentchannel/contracts/Channel.sol",
  "compiler": {
    "name": "solc",
    "version": "0.4.18+commit.9cf6e910.Emscripten.clang"
  },
  "schemaVersion": "1.0.1",
  "updatedAt": "2018-02-14T13:15:30.420Z"
}