{
  "contractName": "Channel",
  "abi": [
    {
      "constant": false,
      "inputs": [
        {
          "name": "_balance",
          "type": "uint256"
        },
        {
          "name": "_signedBalanceMsg",
          "type": "bytes"
        }
      ],
      "name": "withdraw",
      "outputs": [
        {
          "name": "",
          "type": "bool"
        }
      ],
      "payable": false,
      "stateMutability": "nonpayable",
      "type": "function"
    },
    {
      "constant": true,
      "inputs": [],
      "name": "startDate",
      "outputs": [
        {
          "name": "",
          "type": "uint256"
        }
      ],
      "payable": false,
      "stateMutability": "view",
      "type": "function"
    },
    {
      "constant": false,
      "inputs": [
        {
          "name": "_balance",
          "type": "uint256"
        }
      ],
      "name": "challengedSettlement",
      "outputs": [
        {
          "name": "",
          "type": "bool"
        }
      ],
      "payable": false,
      "stateMutability": "nonpayable",
      "type": "function"
    },
    {
      "constant": true,
      "inputs": [],
      "name": "getChannelInfo",
      "outputs": [
        {
          "name": "",
          "type": "address"
        },
        {
          "name": "",
          "type": "address"
        },
        {
          "name": "",
          "type": "address"
        },
        {
          "name": "",
          "type": "uint256"
        },
        {
          "name": "",
          "type": "uint256"
        },
        {
          "name": "",
          "type": "uint8"
        },
        {
          "name": "",
          "type": "uint256"
        },
        {
          "name": "",
          "type": "uint256"
        }
      ],
      "payable": false,
      "stateMutability": "view",
      "type": "function"
    },
    {
      "constant": true,
      "inputs": [],
      "name": "sender",
      "outputs": [
        {
          "name": "",
          "type": "address"
        }
      ],
      "payable": false,
      "stateMutability": "view",
      "type": "function"
    },
    {
      "constant": true,
      "inputs": [
        {
          "name": "hash",
          "type": "bytes32"
        },
        {
          "name": "signature",
          "type": "bytes"
        }
      ],
      "name": "ecverify",
      "outputs": [
        {
          "name": "signatureAddress",
          "type": "address"
        }
      ],
      "payable": false,
      "stateMutability": "pure",
      "type": "function"
    },
    {
      "constant": false,
      "inputs": [],
      "name": "afterChallengeSettle",
      "outputs": [
        {
          "name": "",
          "type": "uint256"
        }
      ],
      "payable": false,
      "stateMutability": "nonpayable",
      "type": "function"
    },
    {
      "constant": false,
      "inputs": [
        {
          "name": "_deposit",
          "type": "uint256"
        }
      ],
      "name": "recharge",
      "outputs": [
        {
          "name": "",
          "type": "bool"
        }
      ],
      "payable": false,
      "stateMutability": "nonpayable",
      "type": "function"
    },
    {
      "constant": true,
      "inputs": [],
      "name": "challengePeriod",
      "outputs": [
        {
          "name": "",
          "type": "uint256"
        }
      ],
      "payable": false,
      "stateMutability": "view",
      "type": "function"
    },
    {
      "constant": false,
      "inputs": [
        {
          "name": "_balance",
          "type": "uint256"
        },
        {
          "name": "_signedBalanceMsg",
          "type": "bytes"
        },
        {
          "name": "_signedClosingMsg",
          "type": "bytes"
        }
      ],
      "name": "mutualSettlement",
      "outputs": [
        {
          "name": "",
          "type": "bool"
        }
      ],
      "payable": false,
      "stateMutability": "nonpayable",
      "type": "function"
    },
    {
      "constant": true,
      "inputs": [],
      "name": "receiver",
      "outputs": [
        {
          "name": "",
          "type": "address"
        }
      ],
      "payable": false,
      "stateMutability": "view",
      "type": "function"
    },
    {
      "constant": true,
      "inputs": [],
      "name": "token",
      "outputs": [
        {
          "name": "",
          "type": "address"
        }
      ],
      "payable": false,
      "stateMutability": "view",
      "type": "function"
    },
    {
      "inputs": [
        {
          "name": "_receiver",
          "type": "address"
        },
        {
          "name": "_sender",
          "type": "address"
        },
        {
          "name": "_tokenAddress",
          "type": "address"
        },
        {
          "name": "_challengePeriod",
          "type": "uint256"
        }
      ],
      "payable": false,
      "stateMutability": "nonpayable",
      "type": "constructor"
    }
  ],
  "bytecode": "0x6060604052600060065560006007556000600855341561001e57600080fd5b604051608080610f8e833981016040528080519190602001805191906020018051919060200180516009805461010060a860020a031916610100600160a060020a038781168202929092179283905592945060009350919004166318160ddd82604051602001526040518163ffffffff167c0100000000000000000000000000000000000000000000000000000000028152600401602060405180830381600087803b15156100cc57600080fd5b6102c65a03f115156100dd57600080fd5b505050604051805190501115156100f357600080fd5b60028054600160a060020a0319908116600160a060020a039687161790915560018054821694861694909417909355600080549093163390941693909317825550600391909155426004556009805460ff19169055610e3690819061015890396000f3006060604052600436106100a05763ffffffff60e060020a600035041663030ba25d81146100a55780630b97bc86146100db5780630eeb30dd1461010057806330d281e01461011657806367e404ce1461018d578063e47c5902146101bc578063e584de9614610212578063ef299b0b14610225578063f3f480d91461023b578063f4da2db41461024e578063f7260d3e1461027c578063fc0c546a1461028f575b600080fd5b34156100b057600080fd5b6100c76004803590602480359081019101356102a2565b604051901515815260200160405180910390f35b34156100e657600080fd5b6100ee61042f565b60405190815260200160405180910390f35b341561010b57600080fd5b6100c7600435610435565b341561012157600080fd5b6101296104b4565b604051600160a060020a03808a168252888116602083015287166040820152606081018690526080810185905260a0810184600381111561016657fe5b60ff1681526020018381526020018281526020019850505050505050505060405180910390f35b341561019857600080fd5b6101a0610520565b604051600160a060020a03909116815260200160405180910390f35b34156101c757600080fd5b6101a0600480359060446024803590810190830135806020601f8201819004810201604051908101604052818152929190602084018383808284375094965061052f95505050505050565b341561021d57600080fd5b6100ee6106c1565b341561023057600080fd5b6100c760043561075b565b341561024657600080fd5b6100ee6108de565b341561025957600080fd5b6100c76004803590602480358082019290810135916044359081019101356108e4565b341561028757600080fd5b6101a0610a1f565b341561029a57600080fd5b6101a0610a2e565b600254600090819032600160a060020a039081169116146102c257600080fd5b60005433600160a060020a039081169116146102dd57600080fd5b600160095460ff1660038111156102f057fe5b146102fa57600080fd5b60075460065461030f9163ffffffff610a4216565b85101561031b57600080fd5b60025461036090600160a060020a0316868686806020601f82018190048102016040519081016040528181529291906020840183838082843750610a54945050505050565b600154909150600160a060020a0380831691161461037d57600080fd5b600754610390908663ffffffff610b8d16565b600755600954600254600160a060020a0361010090920482169163a9059cbb91168760006040516020015260405160e060020a63ffffffff8516028152600160a060020a0390921660048301526024820152604401602060405180830381600087803b15156103fe57600080fd5b6102c65a03f1151561040f57600080fd5b50505060405180519050151561042457600080fd5b506001949350505050565b60045481565b60015460009032600160a060020a0390811691161461045357600080fd5b60005433600160a060020a0390811691161461046e57600080fd5b600160095460ff16600381111561048157fe5b1461048b57600080fd5b60065482111561049a57600080fd5b50426005556009805460ff19166002179055600855600190565b60008054819081908190819081908190819033600160a060020a039081169116146104de57600080fd5b5050600154600254600954600354600454600654600754600160a060020a039687169d9587169c5061010085049096169a50919850965060ff90911694509250565b600154600160a060020a031681565b60008060008061053d610df8565b855160411461054b57600080fd5b6020860151935060408601519250606086015160001a9150601b8260ff16101561057657601b820191505b8160ff16601b148061058b57508160ff16601c145b151561059657600080fd5b6040805190810160405280601c81526020017f19457468657265756d205369676e6564204d6573736167653a0a333200000000815250905080876040518083805190602001908083835b602083106105ff5780518252601f1990920191602091820191016105e0565b6001836020036101000a03801982511681845116179092525050509190910192835250506020019050604051809103902096506001878386866040516000815260200160405260006040516020015260405193845260ff90921660208085019190915260408085019290925260608401929092526080909201915160208103908084039060008661646e5a03f1151561069757600080fd5b5050602060405103519450600160a060020a03851615156106b757600080fd5b5050505092915050565b60015460009032600160a060020a039081169116146106df57600080fd5b60005433600160a060020a039081169116146106fa57600080fd5b600260095460ff16600381111561070d57fe5b1461071757600080fd5b60035460055401421161072957600080fd5b60015460025460085461074992600160a060020a03908116921690610ba3565b151561075457600080fd5b5060085490565b6000805433600160a060020a0390811691161461077757600080fd5b60015432600160a060020a0390811691161461079257600080fd5b6009546001548391600160a060020a0361010090910481169163dd62ed3e91163060006040516020015260405160e060020a63ffffffff8516028152600160a060020a03928316600482015291166024820152604401602060405180830381600087803b151561080157600080fd5b6102c65a03f1151561081257600080fd5b505050604051805190501015151561082957600080fd5b600954600154600160a060020a036101009092048216916323b872dd9116308560006040516020015260405160e060020a63ffffffff8616028152600160a060020a0393841660048201529190921660248201526044810191909152606401602060405180830381600087803b15156108a157600080fd5b6102c65a03f115156108b257600080fd5b5050506040518051905015156108c757600080fd5b506006556009805460ff1916600190811790915590565b60035481565b6001546000908190819032600160a060020a0390811691161480610916575060025432600160a060020a039081169116145b151561092157600080fd5b60005433600160a060020a0390811691161461093c57600080fd5b60065488111561094b57600080fd5b60025461099090600160a060020a0316898989806020601f82018190048102016040519081016040528181529291906020840183838082843750610a54945050505050565b91506109cc828987878080601f016020809104026020016040519081016040528181529291906020840183838082843750610cc9945050505050565b600254909150600160a060020a038083169116146109e957600080fd5b600154600254610a0691600160a060020a0390811691168a610ba3565b1515610a1157600080fd5b506001979650505050505050565b600254600160a060020a031681565b6009546101009004600160a060020a031681565b600082821115610a4e57fe5b50900390565b60008060006040517f737472696e67206d73674964000000000000000000000000000000000000000081527f6164647265737320726563656976657200000000000000000000000000000000600c8201527f75696e742062616c616e63650000000000000000000000000000000000000000601c8201527f6164647265737320636f6e747261637400000000000000000000000000000000602882015260380160405180910390208686306040517f53656e6465722042616c616e63652050726f6f66205369676e0000000000000081526c01000000000000000000000000600160a060020a0394851681026019830152602d820193909352921602604d820152606101604051809103902060405191825260208201526040908101905180910390209150610b83828561052f565b9695505050505050565b600082820183811015610b9c57fe5b9392505050565b600080610bbb60075484610a4290919063ffffffff16565b6009805460ff191660031790819055909150600160a060020a036101009091041663a9059cbb858360006040516020015260405160e060020a63ffffffff8516028152600160a060020a0390921660048301526024820152604401602060405180830381600087803b1515610c2f57600080fd5b6102c65a03f11515610c4057600080fd5b505050604051805190501515610c5557600080fd5b600954600654610100909104600160a060020a03169063a9059cbb908790610c7d9085610a42565b60006040516020015260405160e060020a63ffffffff8516028152600160a060020a0390921660048301526024820152604401602060405180830381600087803b15156103fe57600080fd5b60008060006040517f737472696e67206d73674964000000000000000000000000000000000000000081527f616464726573732073656e646572000000000000000000000000000000000000600c8201527f75696e742062616c616e63650000000000000000000000000000000000000000601a8201527f6164647265737320636f6e747261637400000000000000000000000000000000602682015260360160405180910390208686306040517f526563656976657220436c6f73696e67205369676e000000000000000000000081526c01000000000000000000000000600160a060020a039485168102601583015260298201939093529216026049820152605d01604051809103902060405191825260208201526040908101905180910390209150610b83828561052f565b602060405190810160405260008152905600a165627a7a72305820c9f35dcef00e44dbd03f3d64ab8401a173f070aec495f0f55182f34aede1de080029",
  "source": "pragma solidity ^0.4.18;\n\nimport './ECVerification.sol';\nimport './lib/safeMath.sol';\nimport './token/Token.sol';\n\ncontract Channel is ECVerification {\n\n    using SafeMath for uint256;\n\n    address factory;\n    address public sender;\n    address public receiver;\n    uint public challengePeriod;\n    uint public startDate;\n    uint challengeStartTime;\n\n    uint depositedBalance = 0;\n    uint withdrawnBalance = 0;\n    uint balanceInChallenge = 0;\n\n    enum State {Initiated, Recharged, InChallenge, Settled }\n    State status;\n\n    Token public token;\n\n    modifier onlyFactory() {\n        require(msg.sender == factory);\n        _;\n    }\n\n    modifier originReceiver() {\n        require(tx.origin == receiver);\n        _;\n    }\n\n    modifier originSender() {\n        require(tx.origin == sender);\n        _;\n    }\n\n    modifier originSenderOrReceiver() {\n        require(tx.origin == sender || tx.origin == receiver);\n        _;\n    }\n\n    function Channel(address _receiver, address _sender, address _tokenAddress, uint _challengePeriod) \n    public\n    {       \n        token = Token(_tokenAddress);\n        require(token.totalSupply() > 0);\n        receiver = _receiver;\n        sender = _sender; \n        factory = msg.sender;       \n        challengePeriod = _challengePeriod;\n        startDate = now;\n        status = State.Initiated;\n    }\n\n    function recharge(uint _deposit) \n    external \n    onlyFactory originSender \n    returns (bool)\n    {\n        require(token.allowance(sender, address(this)) >= _deposit);\n        require(token.transferFrom(sender, address(this), _deposit));\n        depositedBalance = _deposit;\n        status = State.Recharged;\n\n        return true;\n    }\n\n    function withdraw(uint _balance, bytes _signedBalanceMsg)\n    external\n    originReceiver onlyFactory\n    returns (bool)\n    {\n        require(status == State.Recharged);\n        require(_balance >= depositedBalance.sub(withdrawnBalance));\n                \n        // Derive sender address from signed balance proof\n        address senderAddress = extractBalanceProofSignature(\n            receiver,\n            _balance,\n            _signedBalanceMsg\n        );\n        require(senderAddress == sender);\n        // Update total withdrawn balance\n        withdrawnBalance = withdrawnBalance.add(_balance);\n\n        // Send the remaining balance to the receiver\n        require(token.transfer(receiver, _balance));\n\n        return true;\n    }\n    \n    function mutualSettlement(uint _balance, bytes _signedBalanceMsg, bytes _signedClosingMsg)\n    external\n    originSenderOrReceiver onlyFactory\n    returns (bool)\n    {\n        require(_balance <= depositedBalance);\n        \n        // Derive sender address from signed balance proof\n        address senderAddr = extractBalanceProofSignature(\n            receiver,\n            _balance,\n            _signedBalanceMsg\n        );\n\n        // Derive receiver address from closing signature\n        address receiverAddr = extractClosingSignature(\n            senderAddr,\n            _balance,\n            _signedClosingMsg\n        );\n        require(receiverAddr == receiver);\n\n        // Both signatures have been verified and the channel can be settled.\n        require(settleChannel(sender, receiver, _balance));\n        return true;\n    }\n\n    function challengedSettlement(uint _balance)\n    external\n    originSender onlyFactory\n    returns (bool)\n    {\n        require(status == State.Recharged);\n        require(_balance <= depositedBalance);\n\n        challengeStartTime = now;\n        status = State.InChallenge;\n        balanceInChallenge = _balance;\n        return true;\n    }\n    \n    function afterChallengeSettle() \n    external \n    originSender onlyFactory\n    returns (uint)\n    {\n        require(status == State.InChallenge); \n        require(now > challengeStartTime + challengePeriod * 1 seconds);  \n\n        require(settleChannel(sender, receiver, balanceInChallenge));\n        return balanceInChallenge;\n    }    \n\n\n    function getChannelInfo() onlyFactory external view returns (address, address, address, uint, uint, State, uint, uint){\n        return( sender,\n                receiver,\n                token,\n                challengePeriod,\n                startDate,\n                status,\n                depositedBalance,\n                withdrawnBalance\n                );\n    }\n    \n    function extractBalanceProofSignature(address _receiverAddress, uint256 _balance, bytes _signedBalanceMsg)\n    internal view\n    returns (address)\n    {\n        bytes32 msgHash = keccak256(\n            keccak256(\n                \"string msgId\",\n                \"address receiver\",\n                \"uint balance\",\n                \"address contract\"\n            ),\n            keccak256(\n                \"Sender Balance Proof Sign\",\n                _receiverAddress,\n                _balance,   \n                address(this)\n            )\n        );\n\n        // Derive address from signature\n        address signer = ECVerification.ecverify(msgHash, _signedBalanceMsg);\n        return signer;\n    }\n\n    function extractClosingSignature(address _senderAddress, uint _balance, bytes _signedClosingMsg)\n    internal view\n    returns (address)\n    {\n        bytes32 msgHash = keccak256(\n            keccak256(\n                \"string msgId\",\n                \"address sender\",\n                \"uint balance\",\n                \"address contract\"\n            ),\n            keccak256(\n                \"Receiver Closing Sign\",\n                _senderAddress,\n                _balance,\n                address(this)\n            )\n        );\n\n        // Derive address from signature\n        address signer = ECVerification.ecverify(msgHash, _signedClosingMsg);\n        return signer;\n    } \n\n    function settleChannel(address _senderAddress, address _receiverAddress, uint _balance)\n    internal \n    returns (bool)\n    {\n        // Send the unwithdrawn _balance to the receiver\n        uint receiverRemainingTokens = _balance.sub(withdrawnBalance);\n        status = State.Settled;\n        require(token.transfer(_receiverAddress, receiverRemainingTokens));\n\n        // Send remaining tokens back to sender\n        require(token.transfer(_senderAddress, depositedBalance.sub(receiverRemainingTokens)));\n        return true;\n    }\n\n}",
  "sourcePath": "/home/aniket/projects/wandx/paymentchannel/contracts/Channel.sol",
  "compiler": {
    "name": "solc",
    "version": "0.4.18+commit.9cf6e910.Emscripten.clang"
  },
  "schemaVersion": "1.0.1",
  "updatedAt": "2018-02-20T20:29:02.579Z"
}