{
  "contractName": "Channel",
  "abi": [
    {
      "constant": true,
      "inputs": [],
      "name": "startDate",
      "outputs": [
        {
          "name": "",
          "type": "uint256"
        }
      ],
      "payable": false,
      "stateMutability": "view",
      "type": "function"
    },
    {
      "constant": false,
      "inputs": [
        {
          "name": "_balance",
          "type": "uint256"
        }
      ],
      "name": "challengedSettlement",
      "outputs": [
        {
          "name": "",
          "type": "bool"
        }
      ],
      "payable": false,
      "stateMutability": "nonpayable",
      "type": "function"
    },
    {
      "constant": true,
      "inputs": [],
      "name": "getChannelInfo",
      "outputs": [
        {
          "name": "",
          "type": "address"
        },
        {
          "name": "",
          "type": "address"
        },
        {
          "name": "",
          "type": "address"
        },
        {
          "name": "",
          "type": "uint256"
        },
        {
          "name": "",
          "type": "uint256"
        },
        {
          "name": "",
          "type": "uint8"
        },
        {
          "name": "",
          "type": "uint256"
        },
        {
          "name": "",
          "type": "uint256"
        }
      ],
      "payable": false,
      "stateMutability": "view",
      "type": "function"
    },
    {
      "constant": false,
      "inputs": [
        {
          "name": "_balance",
          "type": "uint256"
        },
        {
          "name": "_v",
          "type": "uint8"
        },
        {
          "name": "_r",
          "type": "bytes32"
        },
        {
          "name": "_s",
          "type": "bytes32"
        }
      ],
      "name": "withdraw",
      "outputs": [
        {
          "name": "",
          "type": "bool"
        }
      ],
      "payable": false,
      "stateMutability": "nonpayable",
      "type": "function"
    },
    {
      "constant": true,
      "inputs": [],
      "name": "sender",
      "outputs": [
        {
          "name": "",
          "type": "address"
        }
      ],
      "payable": false,
      "stateMutability": "view",
      "type": "function"
    },
    {
      "constant": true,
      "inputs": [
        {
          "name": "_receiverAddress",
          "type": "address"
        },
        {
          "name": "_balance",
          "type": "uint256"
        },
        {
          "name": "_v",
          "type": "uint8"
        },
        {
          "name": "_r",
          "type": "bytes32"
        },
        {
          "name": "_s",
          "type": "bytes32"
        }
      ],
      "name": "extractBalanceProofSignature",
      "outputs": [
        {
          "name": "",
          "type": "bool"
        }
      ],
      "payable": false,
      "stateMutability": "view",
      "type": "function"
    },
    {
      "constant": false,
      "inputs": [],
      "name": "afterChallengeSettle",
      "outputs": [
        {
          "name": "",
          "type": "uint256"
        }
      ],
      "payable": false,
      "stateMutability": "nonpayable",
      "type": "function"
    },
    {
      "constant": false,
      "inputs": [
        {
          "name": "_deposit",
          "type": "uint256"
        }
      ],
      "name": "recharge",
      "outputs": [
        {
          "name": "",
          "type": "bool"
        }
      ],
      "payable": false,
      "stateMutability": "nonpayable",
      "type": "function"
    },
    {
      "constant": true,
      "inputs": [],
      "name": "challengePeriod",
      "outputs": [
        {
          "name": "",
          "type": "uint256"
        }
      ],
      "payable": false,
      "stateMutability": "view",
      "type": "function"
    },
    {
      "constant": true,
      "inputs": [],
      "name": "receiver",
      "outputs": [
        {
          "name": "",
          "type": "address"
        }
      ],
      "payable": false,
      "stateMutability": "view",
      "type": "function"
    },
    {
      "constant": true,
      "inputs": [],
      "name": "token",
      "outputs": [
        {
          "name": "",
          "type": "address"
        }
      ],
      "payable": false,
      "stateMutability": "view",
      "type": "function"
    },
    {
      "inputs": [
        {
          "name": "_receiver",
          "type": "address"
        },
        {
          "name": "_sender",
          "type": "address"
        },
        {
          "name": "_tokenAddress",
          "type": "address"
        },
        {
          "name": "_challengePeriod",
          "type": "uint256"
        }
      ],
      "payable": false,
      "stateMutability": "nonpayable",
      "type": "constructor"
    }
  ],
  "bytecode": "0x6060604052600060065560006007556000600855341561001e57600080fd5b604051608080610ac0833981016040528080519190602001805191906020018051919060200180516009805461010060a860020a031916610100600160a060020a038781168202929092179283905592945060009350919004166318160ddd82604051602001526040518163ffffffff167c0100000000000000000000000000000000000000000000000000000000028152600401602060405180830381600087803b15156100cc57600080fd5b6102c65a03f115156100dd57600080fd5b505050604051805190501115156100f357600080fd5b60028054600160a060020a0319908116600160a060020a039687161790915560018054821694861694909417909355600080549093163390941693909317825550600391909155426004556009805460ff1916905561096890819061015890396000f3006060604052600436106100955763ffffffff60e060020a6000350416630b97bc86811461009a5780630eeb30dd146100bf57806330d281e0146100e95780635ebfdfc61461016057806367e404ce14610182578063d8695188146101b1578063e584de96146101df578063ef299b0b146101f2578063f3f480d914610208578063f7260d3e1461021b578063fc0c546a1461022e575b600080fd5b34156100a557600080fd5b6100ad610241565b60405190815260200160405180910390f35b34156100ca57600080fd5b6100d5600435610247565b604051901515815260200160405180910390f35b34156100f457600080fd5b6100fc6102c6565b604051600160a060020a03808a168252888116602083015287166040820152606081018690526080810185905260a0810184600381111561013957fe5b60ff1681526020018381526020018281526020019850505050505050505060405180910390f35b341561016b57600080fd5b6100d560043560ff60243516604435606435610332565b341561018d57600080fd5b61019561047f565b604051600160a060020a03909116815260200160405180910390f35b34156101bc57600080fd5b6100d5600160a060020a036004351660243560ff6044351660643560843561048e565b34156101ea57600080fd5b6100ad6105a8565b34156101fd57600080fd5b6100d5600435610642565b341561021357600080fd5b6100ad6107c5565b341561022657600080fd5b6101956107cb565b341561023957600080fd5b6101956107da565b60045481565b60015460009032600160a060020a0390811691161461026557600080fd5b60005433600160a060020a0390811691161461028057600080fd5b600160095460ff16600381111561029357fe5b1461029d57600080fd5b6006548211156102ac57600080fd5b50426005556009805460ff19166002179055600855600190565b60008054819081908190819081908190819033600160a060020a039081169116146102f057600080fd5b5050600154600254600954600354600454600654600754600160a060020a039687169d9587169c5061010085049096169a50919850965060ff90911694509250565b60025460009032600160a060020a0390811691161461035057600080fd5b60005433600160a060020a0390811691161461036b57600080fd5b600160095460ff16600381111561037e57fe5b1461038857600080fd5b60075460065461039d9163ffffffff6107ee16565b8511156103a957600080fd5b6002546103c290600160a060020a03168686868661048e565b15156103cd57600080fd5b6007546103e0908663ffffffff61080016565b600755600954600254600160a060020a0361010090920482169163a9059cbb91168760006040516020015260405160e060020a63ffffffff8516028152600160a060020a0390921660048301526024820152604401602060405180830381600087803b151561044e57600080fd5b6102c65a03f1151561045f57600080fd5b50505060405180519050151561047457600080fd5b506001949350505050565b600154600160a060020a031681565b6000808686306040516c01000000000000000000000000600160a060020a03948516810282526014820193909352921602603482015260480160405190819003902060018054919250600160a060020a0390911690826040517f19457468657265756d205369676e6564204d6573736167653a0a3332000000008152601c810191909152603c0160405180910390208787876040516000815260200160405260006040516020015260405193845260ff90921660208085019190915260408085019290925260608401929092526080909201915160208103908084039060008661646e5a03f1151561057f57600080fd5b505060206040510351600160a060020a03161461059b57600080fd5b5060019695505050505050565b60015460009032600160a060020a039081169116146105c657600080fd5b60005433600160a060020a039081169116146105e157600080fd5b600260095460ff1660038111156105f457fe5b146105fe57600080fd5b60035460055401421161061057600080fd5b60015460025460085461063092600160a060020a03908116921690610816565b151561063b57600080fd5b5060085490565b6000805433600160a060020a0390811691161461065e57600080fd5b60015432600160a060020a0390811691161461067957600080fd5b6009546001548391600160a060020a0361010090910481169163dd62ed3e91163060006040516020015260405160e060020a63ffffffff8516028152600160a060020a03928316600482015291166024820152604401602060405180830381600087803b15156106e857600080fd5b6102c65a03f115156106f957600080fd5b505050604051805190501015151561071057600080fd5b600954600154600160a060020a036101009092048216916323b872dd9116308560006040516020015260405160e060020a63ffffffff8616028152600160a060020a0393841660048201529190921660248201526044810191909152606401602060405180830381600087803b151561078857600080fd5b6102c65a03f1151561079957600080fd5b5050506040518051905015156107ae57600080fd5b506006556009805460ff1916600190811790915590565b60035481565b600254600160a060020a031681565b6009546101009004600160a060020a031681565b6000828211156107fa57fe5b50900390565b60008282018381101561080f57fe5b9392505050565b60008061082e600754846107ee90919063ffffffff16565b6009805460ff191660031790819055909150600160a060020a036101009091041663a9059cbb858360006040516020015260405160e060020a63ffffffff8516028152600160a060020a0390921660048301526024820152604401602060405180830381600087803b15156108a257600080fd5b6102c65a03f115156108b357600080fd5b5050506040518051905015156108c857600080fd5b600954600654610100909104600160a060020a03169063a9059cbb9087906108f090856107ee565b60006040516020015260405160e060020a63ffffffff8516028152600160a060020a0390921660048301526024820152604401602060405180830381600087803b151561044e57600080fd00a165627a7a72305820e5c6e2500d0476ac0299fdc57a921fea6738b3570f9a84d6730aac668f4f75ad0029",
  "source": "pragma solidity ^0.4.18;\n\nimport './lib/safeMath.sol';\nimport './token/Token.sol';\n\ncontract Channel {\n\n    using SafeMath for uint256;\n\n    address factory;\n    address public sender;\n    address public receiver;\n    uint public challengePeriod;\n    uint public startDate;\n    uint challengeStartTime;\n\n    uint depositedBalance = 0;\n    uint withdrawnBalance = 0;\n    uint balanceInChallenge = 0;\n\n    enum State {Initiated, Recharged, InChallenge, Settled }\n    State status;\n\n    Token public token;\n\n    modifier onlyFactory() {\n        require(msg.sender == factory);\n        _;\n    }\n\n    modifier originReceiver() {\n        require(tx.origin == receiver);\n        _;\n    }\n\n    modifier originSender() {\n        require(tx.origin == sender);\n        _;\n    }\n\n    modifier originSenderOrReceiver() {\n        require(tx.origin == sender || tx.origin == receiver);\n        _;\n    }\n\n    function Channel(address _receiver, address _sender, address _tokenAddress, uint _challengePeriod) \n    public\n    {       \n        token = Token(_tokenAddress);\n        require(token.totalSupply() > 0);\n        receiver = _receiver;\n        sender = _sender; \n        factory = msg.sender;       \n        challengePeriod = _challengePeriod;\n        startDate = now;\n        status = State.Initiated;\n    }\n\n    function recharge(uint _deposit) \n    external \n    onlyFactory originSender \n    returns (bool)\n    {\n        require(token.allowance(sender, address(this)) >= _deposit);\n        require(token.transferFrom(sender, address(this), _deposit));\n        depositedBalance = _deposit;\n        status = State.Recharged;\n\n        return true;\n    }\n\n    function withdraw(uint _balance, uint8 _v, bytes32 _r, bytes32 _s)\n    external\n    originReceiver onlyFactory\n    returns (bool)\n    {\n        require(status == State.Recharged);\n        require(_balance <= depositedBalance.sub(withdrawnBalance));\n                \n        // Derive sender address from signed balance proof\n         \n        require(extractBalanceProofSignature(\n            receiver,\n            _balance,\n            _v,\n            _r,\n            _s\n        ));\n        // Update total withdrawn balance\n        withdrawnBalance = withdrawnBalance.add(_balance);\n\n        // Send the remaining balance to the receiver\n        require(token.transfer(receiver, _balance));\n\n        return true;\n    }\n    \n    // function mutualSettlement(uint _balance, bytes _signedClosingMsg, uint8 _v, bytes32 _r, bytes32 _s)\n    // external\n    // originSenderOrReceiver onlyFactory\n    // returns (bool)\n    // {\n    //     require(_balance <= depositedBalance);\n        \n    //     // Derive sender address from signed balance proof\n    //     address senderAddr = extractBalanceProofSignature(\n    //         receiver,\n    //         _balance,\n    //         _v,\n    //         _r,\n    //         _s\n    //     );\n\n    //     // Derive receiver address from closing signature\n    //     address receiverAddr = extractClosingSignature(\n    //         senderAddr,\n    //         _balance,\n    //         _signedClosingMsg\n    //     );\n    //     require(receiverAddr == receiver);\n\n    //     // Both signatures have been verified and the channel can be settled.\n    //     require(settleChannel(sender, receiver, _balance));\n    //     return true;\n    // }\n\n    function challengedSettlement(uint _balance)\n    external\n    originSender onlyFactory\n    returns (bool)\n    {\n        require(status == State.Recharged);\n        require(_balance <= depositedBalance);\n\n        challengeStartTime = now;\n        status = State.InChallenge;\n        balanceInChallenge = _balance;\n        return true;\n    }\n    \n    function afterChallengeSettle() \n    external \n    originSender onlyFactory\n    returns (uint)\n    {\n        require(status == State.InChallenge); \n        require(now > challengeStartTime + challengePeriod * 1 seconds);  \n\n        require(settleChannel(sender, receiver, balanceInChallenge));\n        return balanceInChallenge;\n    }    \n\n\n    function getChannelInfo() onlyFactory external view returns (address, address, address, uint, uint, State, uint, uint) {\n        return( sender,\n                receiver,\n                token,\n                challengePeriod,\n                startDate,\n                status,\n                depositedBalance,\n                withdrawnBalance\n                );\n    }\n    \n    function extractBalanceProofSignature(address _receiverAddress, uint256 _balance, uint8 _v, bytes32 _r, bytes32 _s)\n    public view\n    returns (bool)\n    {\n        bytes32 hash = keccak256(_receiverAddress, _balance, address(this));\n\n        // Derive address from signature\n        require(ecrecover(keccak256(\"\\x19Ethereum Signed Message:\\n32\", hash), _v, _r, _s) == sender);\n        return true;\n    }\n\n    function extractClosingSignature(address _senderAddress, uint _balance, uint8 _v, bytes32 _r, bytes32 _s)\n    internal view\n    returns (address)\n    {\n        bytes32 msgHash = keccak256(\n            keccak256(\n                \"string msgId\",\n                \"address sender\",\n                \"uint balance\",\n                \"address contract\"\n            ),\n            keccak256(\n                \"Receiver Closing Sign\",\n                _senderAddress,\n                _balance,\n                address(this)\n            )\n        );\n\n        // Derive address from signature\n        address signer = ecrecover(keccak256(\"\\x19Ethereum Signed Message:\\n32\",msgHash), _v, _r, _s);\n        return signer;\n    } \n\n    function settleChannel(address _senderAddress, address _receiverAddress, uint _balance)\n    internal \n    returns (bool)\n    {\n        // Send the unwithdrawn _balance to the receiver\n        uint receiverRemainingTokens = _balance.sub(withdrawnBalance);\n        status = State.Settled;\n        require(token.transfer(_receiverAddress, receiverRemainingTokens));\n\n        // Send remaining tokens back to sender\n        require(token.transfer(_senderAddress, depositedBalance.sub(receiverRemainingTokens)));\n        return true;\n    }\n\n}",
  "sourcePath": "/Users/satyamagrawal/Repositories/paymentchannel/contracts/Channel.sol",
  "compiler": {
    "name": "solc",
    "version": "0.4.18+commit.9cf6e910.Emscripten.clang"
  },
  "schemaVersion": "1.0.1",
  "updatedAt": "2018-02-22T08:26:53.391Z"
}