{
  "contractName": "Channel",
  "abi": [
    {
      "constant": false,
      "inputs": [
        {
          "name": "_balance",
          "type": "uint256"
        },
        {
          "name": "_signedBalanceMsg",
          "type": "bytes"
        }
      ],
      "name": "withdraw",
      "outputs": [],
      "payable": false,
      "stateMutability": "nonpayable",
      "type": "function"
    },
    {
      "constant": false,
      "inputs": [
        {
          "name": "_balance",
          "type": "uint256"
        }
      ],
      "name": "challengedSettlement",
      "outputs": [],
      "payable": false,
      "stateMutability": "nonpayable",
      "type": "function"
    },
    {
      "constant": true,
      "inputs": [],
      "name": "getChannelInfo",
      "outputs": [
        {
          "name": "",
          "type": "address"
        },
        {
          "name": "",
          "type": "address"
        },
        {
          "name": "",
          "type": "uint256"
        },
        {
          "name": "",
          "type": "uint256"
        },
        {
          "name": "",
          "type": "uint8"
        },
        {
          "name": "",
          "type": "uint256"
        },
        {
          "name": "",
          "type": "uint256"
        }
      ],
      "payable": false,
      "stateMutability": "view",
      "type": "function"
    },
    {
      "constant": true,
      "inputs": [],
      "name": "sender",
      "outputs": [
        {
          "name": "",
          "type": "address"
        }
      ],
      "payable": false,
      "stateMutability": "view",
      "type": "function"
    },
    {
      "constant": false,
      "inputs": [],
      "name": "afterChallengeSettle",
      "outputs": [],
      "payable": false,
      "stateMutability": "nonpayable",
      "type": "function"
    },
    {
      "constant": false,
      "inputs": [
        {
          "name": "_deposit",
          "type": "uint256"
        }
      ],
      "name": "recharge",
      "outputs": [],
      "payable": false,
      "stateMutability": "nonpayable",
      "type": "function"
    },
    {
      "constant": true,
      "inputs": [],
      "name": "challengePeriod",
      "outputs": [
        {
          "name": "",
          "type": "uint256"
        }
      ],
      "payable": false,
      "stateMutability": "view",
      "type": "function"
    },
    {
      "constant": false,
      "inputs": [
        {
          "name": "_balance",
          "type": "uint256"
        },
        {
          "name": "_signedBalanceMsg",
          "type": "bytes"
        },
        {
          "name": "_signedClosingMsg",
          "type": "bytes"
        }
      ],
      "name": "mutualSettlement",
      "outputs": [],
      "payable": false,
      "stateMutability": "nonpayable",
      "type": "function"
    },
    {
      "constant": true,
      "inputs": [],
      "name": "receiver",
      "outputs": [
        {
          "name": "",
          "type": "address"
        }
      ],
      "payable": false,
      "stateMutability": "view",
      "type": "function"
    },
    {
      "constant": true,
      "inputs": [],
      "name": "token",
      "outputs": [
        {
          "name": "",
          "type": "address"
        }
      ],
      "payable": false,
      "stateMutability": "view",
      "type": "function"
    },
    {
      "inputs": [
        {
          "name": "_receiver",
          "type": "address"
        },
        {
          "name": "_tokenAddress",
          "type": "address"
        },
        {
          "name": "_challengePeriod",
          "type": "uint256"
        }
      ],
      "payable": false,
      "stateMutability": "nonpayable",
      "type": "constructor"
    },
    {
      "anonymous": false,
      "inputs": [
        {
          "indexed": true,
          "name": "_senderAddress",
          "type": "address"
        },
        {
          "indexed": true,
          "name": "_receiverAddress",
          "type": "address"
        },
        {
          "indexed": false,
          "name": "_deposit",
          "type": "uint256"
        }
      ],
      "name": "ChannelRecharged",
      "type": "event"
    },
    {
      "anonymous": false,
      "inputs": [
        {
          "indexed": true,
          "name": "_senderAddress",
          "type": "address"
        },
        {
          "indexed": true,
          "name": "_receiverAddress",
          "type": "address"
        },
        {
          "indexed": false,
          "name": "_withdrawnBalance",
          "type": "uint256"
        }
      ],
      "name": "ChannelWithdraw",
      "type": "event"
    },
    {
      "anonymous": false,
      "inputs": [
        {
          "indexed": true,
          "name": "_senderAddress",
          "type": "address"
        },
        {
          "indexed": true,
          "name": "_receiverAddress",
          "type": "address"
        },
        {
          "indexed": false,
          "name": "_balance",
          "type": "uint256"
        },
        {
          "indexed": false,
          "name": "_receiverTokens",
          "type": "uint256"
        }
      ],
      "name": "ChannelSettled",
      "type": "event"
    },
    {
      "anonymous": false,
      "inputs": [
        {
          "indexed": true,
          "name": "_senderAddress",
          "type": "address"
        },
        {
          "indexed": true,
          "name": "_receiverAddress",
          "type": "address"
        },
        {
          "indexed": false,
          "name": "_balance",
          "type": "uint256"
        }
      ],
      "name": "ChannelChallenged",
      "type": "event"
    }
  ],
  "bytecode": "0x6060604052600060055560006006556000600755341561001e57600080fd5b604051606080610f378339810160405280805191906020018051919060200180519150839050600160a060020a038116151561005957600080fd5b816000811161006757600080fd5b600160a060020a038416151561007c57600080fd5b61009284640100000000610d6061018c82021704565b151561009d57600080fd5b6008805461010060a860020a031916610100600160a060020a038781168202929092179283905560009204166318160ddd82604051602001526040518163ffffffff167c0100000000000000000000000000000000000000000000000000000000028152600401602060405180830381600087803b151561011d57600080fd5b6102c65a03f1151561012e57600080fd5b5050506040518051905011151561014457600080fd5b50506000555060018054600160a060020a03338116600160a060020a03199283161790925560028054939092169216919091179055426003556008805460ff19169055610194565b6000903b1190565b610d94806101a36000396000f30060606040526004361061008a5763ffffffff60e060020a600035041663030ba25d811461008f5780630eeb30dd146100b357806330d281e0146100c957806367e404ce14610137578063e584de9614610166578063ef299b0b14610179578063f3f480d91461018f578063f4da2db4146101b4578063f7260d3e146101e2578063fc0c546a146101f5575b600080fd5b341561009a57600080fd5b6100b1600480359060248035908101910135610208565b005b34156100be57600080fd5b6100b160043561039d565b34156100d457600080fd5b6100dc610451565b604051600160a060020a0380891682528716602082015260408101869052606081018590526080810184600381111561011157fe5b60ff16815260200183815260200182815260200197505050505050505060405180910390f35b341561014257600080fd5b61014a6104e3565b604051600160a060020a03909116815260200160405180910390f35b341561017157600080fd5b6100b16104f2565b341561018457600080fd5b6100b160043561055b565b341561019a57600080fd5b6101a2610705565b60405190815260200160405180910390f35b34156101bf57600080fd5b6100b160048035906024803580820192908101359160443590810191013561070b565b34156101ed57600080fd5b61014a610828565b341561020057600080fd5b61014a610837565b60025460009033600160a060020a0390811691161461022657600080fd5b836000811161023457600080fd5b600160085460ff16600381111561024757fe5b1461025157600080fd5b6006546005546102669163ffffffff61084b16565b85101561027257600080fd5b6102ac338686868080601f01602080910402602001604051908101604052818152929190602084018383808284375061085d945050505050565b6006549092506102c2908663ffffffff61099616565b6006556008546101009004600160a060020a031663a9059cbb338760006040516020015260405160e060020a63ffffffff8516028152600160a060020a0390921660048301526024820152604401602060405180830381600087803b151561032957600080fd5b6102c65a03f1151561033a57600080fd5b50505060405180519050151561034f57600080fd5b33600160a060020a031682600160a060020a03167fbee844d4e77b3bcf78fcee52d77c99d2d09cb13e4f4fc45cf2bd29133341baa28760405190815260200160405180910390a35050505050565b60015433600160a060020a039081169116146103b857600080fd5b80600081116103c657600080fd5b600160085460ff1660038111156103d957fe5b146103e357600080fd5b6005548211156103f257600080fd5b426004556008805460ff19166002908117909155600783905554600160a060020a039081169033167f625583ff26a91240423702f3f802c8f820f3f67a7d524edef6e5d73422b559868460405190815260200160405180910390a35050565b6000806000806000806000600160009054906101000a9004600160a060020a0316600160a060020a031633600160a060020a0316148061049f575060025433600160a060020a039081169116145b15156104aa57600080fd5b5050600154600254600054600354600854600554600654600160a060020a039687169c969095169a5092985090965060ff169450925090565b600154600160a060020a031681565b60015433600160a060020a0390811691161461050d57600080fd5b600260085460ff16600381111561052057fe5b1461052a57600080fd5b60005460045401421161053c57600080fd5b600254600754610559913391600160a060020a03909116906109ac565b565b60015433600160a060020a0390811691161461057657600080fd5b806000811161058457600080fd5b60085482906101009004600160a060020a031663dd62ed3e333060006040516020015260405160e060020a63ffffffff8516028152600160a060020a03928316600482015291166024820152604401602060405180830381600087803b15156105ec57600080fd5b6102c65a03f115156105fd57600080fd5b505050604051805190501015151561061457600080fd5b6008546101009004600160a060020a03166323b872dd33308560006040516020015260405160e060020a63ffffffff8616028152600160a060020a0393841660048201529190921660248201526044810191909152606401602060405180830381600087803b151561068557600080fd5b6102c65a03f1151561069657600080fd5b5050506040518051905015156106ab57600080fd5b60058290556008805460ff19166001179055600254600160a060020a039081169033167f810cbf5c1b5b9c60cd779ed148131568556f4dfd4ac14ca914f7c322ecb36de48460405190815260200160405180910390a35050565b60005481565b600154600090819033600160a060020a039081169116148061073b575060025433600160a060020a039081169116145b151561074657600080fd5b866000811161075457600080fd5b60055488111561076357600080fd5b6002546107a890600160a060020a0316898989806020601f8201819004810201604051908101604052818152929190602084018383808284375061085d945050505050565b92506107e4838987878080601f016020809104026020016040519081016040528181529291906020840183838082843750610b4b945050505050565b600254909250600160a060020a0380841691161461080157600080fd5b60015460025461081e91600160a060020a0390811691168a6109ac565b5050505050505050565b600254600160a060020a031681565b6008546101009004600160a060020a031681565b60008282111561085757fe5b50900390565b60008060006040517f737472696e67206d73674964000000000000000000000000000000000000000081527f6164647265737320726563656976657200000000000000000000000000000000600c8201527f75696e742062616c616e63650000000000000000000000000000000000000000601c8201527f6164647265737320636f6e747261637400000000000000000000000000000000602882015260380160405180910390208686306040517f53656e6465722042616c616e63652050726f6f66205369676e0000000000000081526c01000000000000000000000000600160a060020a0394851681026019830152602d820193909352921602604d82015260610160405180910390206040519182526020820152604090810190518091039020915061098c8285610c76565b9695505050505050565b6000828201838110156109a557fe5b9392505050565b60006109c36006548361084b90919063ffffffff16565b6008805460ff191660031790819055909150600160a060020a036101009091041663a9059cbb848360006040516020015260405160e060020a63ffffffff8516028152600160a060020a0390921660048301526024820152604401602060405180830381600087803b1515610a3757600080fd5b6102c65a03f11515610a4857600080fd5b505050604051805190501515610a5d57600080fd5b600854600554610100909104600160a060020a03169063a9059cbb908690610a85908561084b565b60006040516020015260405160e060020a63ffffffff8516028152600160a060020a0390921660048301526024820152604401602060405180830381600087803b1515610ad157600080fd5b6102c65a03f11515610ae257600080fd5b505050604051805190501515610af757600080fd5b82600160a060020a031684600160a060020a03167f974062f01eefac5c024e60f404f675279744b294815ae95da683537369b2c461848460405191825260208201526040908101905180910390a350505050565b60008060006040517f737472696e67206d73674964000000000000000000000000000000000000000081527f616464726573732073656e646572000000000000000000000000000000000000600c8201527f75696e742062616c616e63650000000000000000000000000000000000000000601a8201527f6164647265737320636f6e747261637400000000000000000000000000000000602682015260360160405180910390208686306040517f526563656976657220436c6f73696e67205369676e000000000000000000000081526c01000000000000000000000000600160a060020a039485168102601583015260298201939093529216026049820152605d0160405180910390206040519182526020820152604090810190518091039020915061098c82855b6000806000808451604114610c8a57600080fd5b6020850151925060408501519150606085015160001a9050601b8160ff161015610cb257601b015b8060ff16601b1480610cc757508060ff16601c145b1515610cd257600080fd5b6001868285856040516000815260200160405260006040516020015260405193845260ff90921660208085019190915260408085019290925260608401929092526080909201915160208103908084039060008661646e5a03f11515610d3757600080fd5b5050602060405103519350600160a060020a0384161515610d5757600080fd5b50505092915050565b6000903b11905600a165627a7a7230582008e0b62ca534b11ffc1b822efe8504c9ca50819ea89a1e5adfa35f1cd3b97ecd0029",
  "source": "pragma solidity ^0.4.18;\n\nimport './lib/ecverification.sol';\nimport './lib/safeMath.sol';\nimport './token/token.sol';\n\ncontract Channel {\n\n    using SafeMath for uint256;\n\n    uint public challengePeriod;\n    address public sender;\n    address public receiver;\n    uint startDate;\n    uint challengeStartTime;\n\n    uint depositedBalance = 0;\n    uint withdrawnBalance = 0;\n    uint balanceInChallenge = 0;\n\n    enum State {Initiated, Recharged, InChallenge, Settled }\n    State status;\n\n    Token public token;\n\n    modifier onlySender() {\n        require(msg.sender == sender);\n        _;\n    }\n\n    modifier onlyReceiver() {\n        require(msg.sender == receiver);\n        _;\n    }\n\n    modifier onlySenderOrReceiver() {\n        require(msg.sender == sender || msg.sender == receiver);\n        _;\n    }\n\n    modifier nonZero(uint param) {\n        require(param > 0);\n        _;\n    }\n\n    modifier nonZeroAddress(address addr) {\n        require(addr != address(0));\n        _;\n    }\n\n    event ChannelRecharged(\n        address indexed _senderAddress,\n        address indexed _receiverAddress,\n        uint _deposit);\n\n    event ChannelWithdraw(\n        address indexed _senderAddress,\n        address indexed _receiverAddress,\n        uint _withdrawnBalance);\n\n    event ChannelSettled(\n        address indexed _senderAddress,\n        address indexed _receiverAddress,\n        uint _balance,\n        uint _receiverTokens);\n\n    event ChannelChallenged(\n        address indexed _senderAddress,\n        address indexed _receiverAddress,\n        uint _balance);\n\n\n    function Channel(address _receiver, address _tokenAddress, uint _challengePeriod) \n    public \n    nonZeroAddress(_receiver) nonZero(_challengePeriod)\n    {\n        require(_tokenAddress != 0x0);\n        require(addressHasCode(_tokenAddress));\n        token = Token(_tokenAddress);\n        require(token.totalSupply() > 0);\n\n        challengePeriod = _challengePeriod;\n        sender = msg.sender;\n        receiver = _receiver;\n        startDate = now;\n        status = State.Initiated;\n    }\n\n    function recharge(uint _deposit) \n    external \n    onlySender nonZero(_deposit) \n    {\n        require(token.allowance(msg.sender, address(this)) >= _deposit);\n        require(token.transferFrom(msg.sender, address(this), _deposit));\n        depositedBalance = _deposit;\n        status = State.Recharged;\n\n        ChannelRecharged(msg.sender, receiver, depositedBalance);\n    }\n\n    function withdraw(uint _balance, bytes _signedBalanceMsg)\n    external\n    onlyReceiver nonZero(_balance)\n    {\n        require(status == State.Recharged);\n        require(_balance >= depositedBalance.sub(withdrawnBalance));\n                \n        // Derive sender address from signed balance proof\n        address senderAddress = extractBalanceProofSignature(\n            msg.sender,\n            _balance,\n            _signedBalanceMsg\n        );\n        // Update total withdrawn balance\n        withdrawnBalance = withdrawnBalance.add(_balance);\n\n        // Send the remaining balance to the receiver\n        require(token.transfer(msg.sender, _balance));\n\n        ChannelWithdraw(senderAddress, msg.sender, _balance);\n    }\n    \n    function mutualSettlement(uint _balance, bytes _signedBalanceMsg, bytes _signedClosingMsg)\n    external\n    onlySenderOrReceiver nonZero(_balance)\n    {\n        require(_balance <= depositedBalance);\n        \n        // Derive sender address from signed balance proof\n        address senderAddr = extractBalanceProofSignature(\n            receiver,\n            _balance,\n            _signedBalanceMsg\n        );\n\n        // Derive receiver address from closing signature\n        address receiverAddr = extractClosingSignature(\n            senderAddr,\n            _balance,\n            _signedClosingMsg\n        );\n        require(receiverAddr == receiver);\n\n        // Both signatures have been verified and the channel can be settled.\n        settleChannel(sender, receiver, _balance);\n    }\n\n    function challengedSettlement(uint _balance)\n    external\n    onlySender nonZero(_balance)\n    {\n        require(status == State.Recharged);\n        require(_balance <= depositedBalance);\n\n        challengeStartTime = now;\n        status = State.InChallenge;\n        balanceInChallenge = _balance;\n        ChannelChallenged(msg.sender, receiver, _balance);\n    }\n    \n    function afterChallengeSettle() \n    external \n    onlySender\n    {\n        require(status == State.InChallenge); \n        require(now > challengeStartTime + challengePeriod * 1 seconds);  \n\n        settleChannel(msg.sender, receiver, balanceInChallenge);\n    }    \n\n\n    function getChannelInfo() onlySenderOrReceiver external view returns (address, address, uint, uint, State, uint, uint){\n        return( sender,\n                receiver,\n                challengePeriod,\n                startDate,\n                status,\n                depositedBalance,\n                withdrawnBalance\n                );\n    }\n    \n    function extractBalanceProofSignature(address _receiverAddress, uint256 _balance, bytes _signedBalanceMsg)\n    internal view\n    returns (address)\n    {\n        bytes32 msgHash = keccak256(\n            keccak256(\n                \"string msgId\",\n                \"address receiver\",\n                \"uint balance\",\n                \"address contract\"\n            ),\n            keccak256(\n                \"Sender Balance Proof Sign\",\n                _receiverAddress,\n                _balance,   \n                address(this)\n            )\n        );\n\n        // Derive address from signature\n        address signer = ECVerification.ecverify(msgHash, _signedBalanceMsg);\n        return signer;\n    }\n\n    function extractClosingSignature(address _senderAddress, uint _balance, bytes _signedClosingMsg)\n    internal view\n    returns (address)\n    {\n        bytes32 msgHash = keccak256(\n            keccak256(\n                \"string msgId\",\n                \"address sender\",\n                \"uint balance\",\n                \"address contract\"\n            ),\n            keccak256(\n                \"Receiver Closing Sign\",\n                _senderAddress,\n                _balance,\n                address(this)\n            )\n        );\n\n        // Derive address from signature\n        address signer = ECVerification.ecverify(msgHash, _signedClosingMsg);\n        return signer;\n    } \n\n    function settleChannel(address _senderAddress, address _receiverAddress, uint _balance)\n    internal \n    {\n        // Send the unwithdrawn _balance to the receiver\n        uint receiverRemainingTokens = _balance.sub(withdrawnBalance);\n        status = State.Settled;\n        require(token.transfer(_receiverAddress, receiverRemainingTokens));\n\n        // Send remaining tokens back to sender\n        require(token.transfer(_senderAddress, depositedBalance.sub(receiverRemainingTokens)));\n\n        ChannelSettled(_senderAddress, _receiverAddress, _balance, receiverRemainingTokens);\n    }\n   \n    \n    function addressHasCode(address _contract) internal view returns (bool) {\n        uint size;\n        assembly {\n            size := extcodesize(_contract)\n        }\n        return size > 0;\n    }\n\n\n}",
  "sourcePath": "/home/aniket/projects/paymentchannel/contracts/Channel.sol",
  "compiler": {
    "name": "solc",
    "version": "0.4.18+commit.9cf6e910.Emscripten.clang"
  },
  "schemaVersion": "1.0.1",
  "updatedAt": "2018-02-13T11:46:09.678Z"
}