{
  "contractName": "Channel",
  "abi": [
    {
      "constant": false,
      "inputs": [
        {
          "name": "_balance",
          "type": "uint256"
        },
        {
          "name": "_signedBalanceMsg",
          "type": "bytes"
        }
      ],
      "name": "withdraw",
      "outputs": [
        {
          "name": "",
          "type": "bool"
        }
      ],
      "payable": false,
      "stateMutability": "nonpayable",
      "type": "function"
    },
    {
      "constant": true,
      "inputs": [],
      "name": "startDate",
      "outputs": [
        {
          "name": "",
          "type": "uint256"
        }
      ],
      "payable": false,
      "stateMutability": "view",
      "type": "function"
    },
    {
      "constant": false,
      "inputs": [
        {
          "name": "_balance",
          "type": "uint256"
        }
      ],
      "name": "challengedSettlement",
      "outputs": [
        {
          "name": "",
          "type": "bool"
        }
      ],
      "payable": false,
      "stateMutability": "nonpayable",
      "type": "function"
    },
    {
      "constant": true,
      "inputs": [],
      "name": "getChannelInfo",
      "outputs": [
        {
          "name": "",
          "type": "address"
        },
        {
          "name": "",
          "type": "address"
        },
        {
          "name": "",
          "type": "uint256"
        },
        {
          "name": "",
          "type": "uint256"
        },
        {
          "name": "",
          "type": "uint8"
        },
        {
          "name": "",
          "type": "uint256"
        },
        {
          "name": "",
          "type": "uint256"
        }
      ],
      "payable": false,
      "stateMutability": "view",
      "type": "function"
    },
    {
      "constant": true,
      "inputs": [],
      "name": "sender",
      "outputs": [
        {
          "name": "",
          "type": "address"
        }
      ],
      "payable": false,
      "stateMutability": "view",
      "type": "function"
    },
    {
      "constant": false,
      "inputs": [],
      "name": "afterChallengeSettle",
      "outputs": [
        {
          "name": "",
          "type": "uint256"
        }
      ],
      "payable": false,
      "stateMutability": "nonpayable",
      "type": "function"
    },
    {
      "constant": false,
      "inputs": [
        {
          "name": "_deposit",
          "type": "uint256"
        }
      ],
      "name": "recharge",
      "outputs": [
        {
          "name": "",
          "type": "bool"
        }
      ],
      "payable": false,
      "stateMutability": "nonpayable",
      "type": "function"
    },
    {
      "constant": true,
      "inputs": [],
      "name": "challengePeriod",
      "outputs": [
        {
          "name": "",
          "type": "uint256"
        }
      ],
      "payable": false,
      "stateMutability": "view",
      "type": "function"
    },
    {
      "constant": false,
      "inputs": [
        {
          "name": "_balance",
          "type": "uint256"
        },
        {
          "name": "_signedBalanceMsg",
          "type": "bytes"
        },
        {
          "name": "_signedClosingMsg",
          "type": "bytes"
        }
      ],
      "name": "mutualSettlement",
      "outputs": [
        {
          "name": "",
          "type": "bool"
        }
      ],
      "payable": false,
      "stateMutability": "nonpayable",
      "type": "function"
    },
    {
      "constant": true,
      "inputs": [],
      "name": "receiver",
      "outputs": [
        {
          "name": "",
          "type": "address"
        }
      ],
      "payable": false,
      "stateMutability": "view",
      "type": "function"
    },
    {
      "constant": true,
      "inputs": [],
      "name": "token",
      "outputs": [
        {
          "name": "",
          "type": "address"
        }
      ],
      "payable": false,
      "stateMutability": "view",
      "type": "function"
    },
    {
      "inputs": [
        {
          "name": "_receiver",
          "type": "address"
        },
        {
          "name": "_sender",
          "type": "address"
        },
        {
          "name": "_tokenAddress",
          "type": "address"
        },
        {
          "name": "_challengePeriod",
          "type": "uint256"
        }
      ],
      "payable": false,
      "stateMutability": "nonpayable",
      "type": "constructor"
    }
  ],
  "bytecode": "0x6060604052600060065560006007556000600855341561001e57600080fd5b604051608080610e47833981016040528080519190602001805191906020018051919060200180516009805461010060a860020a031916610100600160a060020a038781168202929092179283905592945060009350919004166318160ddd82604051602001526040518163ffffffff167c0100000000000000000000000000000000000000000000000000000000028152600401602060405180830381600087803b15156100cc57600080fd5b6102c65a03f115156100dd57600080fd5b505050604051805190501115156100f357600080fd5b60028054600160a060020a03958616600160a060020a031991821617909155600180549490951693169290921790925560035550426004556009805460ff19169055610d03806101446000396000f3006060604052600436106100955763ffffffff60e060020a600035041663030ba25d811461009a5780630b97bc86146100d05780630eeb30dd146100f557806330d281e01461010b57806367e404ce14610179578063e584de96146101a8578063ef299b0b146101bb578063f3f480d9146101d1578063f4da2db4146101e4578063f7260d3e14610212578063fc0c546a14610225575b600080fd5b34156100a557600080fd5b6100bc600480359060248035908101910135610238565b604051901515815260200160405180910390f35b34156100db57600080fd5b6100e36103c5565b60405190815260200160405180910390f35b341561010057600080fd5b6100bc6004356103cb565b341561011657600080fd5b61011e61044a565b604051600160a060020a0380891682528716602082015260408101869052606081018590526080810184600381111561015357fe5b60ff16815260200183815260200182815260200197505050505050505060405180910390f35b341561018457600080fd5b61018c6104ab565b604051600160a060020a03909116815260200160405180910390f35b34156101b357600080fd5b6100e36104ba565b34156101c657600080fd5b6100bc600435610554565b34156101dc57600080fd5b6100e36106d7565b34156101ef57600080fd5b6100bc6004803590602480358082019290810135916044359081019101356106dd565b341561021d57600080fd5b61018c610818565b341561023057600080fd5b61018c610827565b600254600090819032600160a060020a0390811691161461025857600080fd5b60005433600160a060020a0390811691161461027357600080fd5b600160095460ff16600381111561028657fe5b1461029057600080fd5b6007546006546102a59163ffffffff61083b16565b8510156102b157600080fd5b6002546102f690600160a060020a0316868686806020601f8201819004810201604051908101604052818152929190602084018383808284375061084d945050505050565b600154909150600160a060020a0380831691161461031357600080fd5b600754610326908663ffffffff61098616565b600755600954600254600160a060020a0361010090920482169163a9059cbb91168760006040516020015260405160e060020a63ffffffff8516028152600160a060020a0390921660048301526024820152604401602060405180830381600087803b151561039457600080fd5b6102c65a03f115156103a557600080fd5b5050506040518051905015156103ba57600080fd5b506001949350505050565b60045481565b60015460009032600160a060020a039081169116146103e957600080fd5b60005433600160a060020a0390811691161461040457600080fd5b600160095460ff16600381111561041757fe5b1461042157600080fd5b60065482111561043057600080fd5b50426005556009805460ff19166002179055600855600190565b6000805481908190819081908190819033600160a060020a0390811691161461047257600080fd5b5050600154600254600354600454600954600654600754600160a060020a039687169c969095169a5092985090965060ff169450925090565b600154600160a060020a031681565b60015460009032600160a060020a039081169116146104d857600080fd5b60005433600160a060020a039081169116146104f357600080fd5b600260095460ff16600381111561050657fe5b1461051057600080fd5b60035460055401421161052257600080fd5b60015460025460085461054292600160a060020a0390811692169061099c565b151561054d57600080fd5b5060085490565b6000805433600160a060020a0390811691161461057057600080fd5b60015432600160a060020a0390811691161461058b57600080fd5b6009546001548391600160a060020a0361010090910481169163dd62ed3e91163060006040516020015260405160e060020a63ffffffff8516028152600160a060020a03928316600482015291166024820152604401602060405180830381600087803b15156105fa57600080fd5b6102c65a03f1151561060b57600080fd5b505050604051805190501015151561062257600080fd5b600954600154600160a060020a036101009092048216916323b872dd9116308560006040516020015260405160e060020a63ffffffff8616028152600160a060020a0393841660048201529190921660248201526044810191909152606401602060405180830381600087803b151561069a57600080fd5b6102c65a03f115156106ab57600080fd5b5050506040518051905015156106c057600080fd5b506006556009805460ff1916600190811790915590565b60035481565b6001546000908190819032600160a060020a039081169116148061070f575060025432600160a060020a039081169116145b151561071a57600080fd5b60005433600160a060020a0390811691161461073557600080fd5b60065488111561074457600080fd5b60025461078990600160a060020a0316898989806020601f8201819004810201604051908101604052818152929190602084018383808284375061084d945050505050565b91506107c5828987878080601f016020809104026020016040519081016040528181529291906020840183838082843750610ac2945050505050565b600254909150600160a060020a038083169116146107e257600080fd5b6001546002546107ff91600160a060020a0390811691168a61099c565b151561080a57600080fd5b506001979650505050505050565b600254600160a060020a031681565b6009546101009004600160a060020a031681565b60008282111561084757fe5b50900390565b60008060006040517f737472696e67206d73674964000000000000000000000000000000000000000081527f6164647265737320726563656976657200000000000000000000000000000000600c8201527f75696e742062616c616e63650000000000000000000000000000000000000000601c8201527f6164647265737320636f6e747261637400000000000000000000000000000000602882015260380160405180910390208686306040517f53656e6465722042616c616e63652050726f6f66205369676e0000000000000081526c01000000000000000000000000600160a060020a0394851681026019830152602d820193909352921602604d82015260610160405180910390206040519182526020820152604090810190518091039020915061097c8285610bed565b9695505050505050565b60008282018381101561099557fe5b9392505050565b6000806109b46007548461083b90919063ffffffff16565b6009805460ff191660031790819055909150600160a060020a036101009091041663a9059cbb858360006040516020015260405160e060020a63ffffffff8516028152600160a060020a0390921660048301526024820152604401602060405180830381600087803b1515610a2857600080fd5b6102c65a03f11515610a3957600080fd5b505050604051805190501515610a4e57600080fd5b600954600654610100909104600160a060020a03169063a9059cbb908790610a76908561083b565b60006040516020015260405160e060020a63ffffffff8516028152600160a060020a0390921660048301526024820152604401602060405180830381600087803b151561039457600080fd5b60008060006040517f737472696e67206d73674964000000000000000000000000000000000000000081527f616464726573732073656e646572000000000000000000000000000000000000600c8201527f75696e742062616c616e63650000000000000000000000000000000000000000601a8201527f6164647265737320636f6e747261637400000000000000000000000000000000602682015260360160405180910390208686306040517f526563656976657220436c6f73696e67205369676e000000000000000000000081526c01000000000000000000000000600160a060020a039485168102601583015260298201939093529216026049820152605d0160405180910390206040519182526020820152604090810190518091039020915061097c82855b6000806000808451604114610c0157600080fd5b6020850151925060408501519150606085015160001a9050601b8160ff161015610c2957601b015b8060ff16601b1480610c3e57508060ff16601c145b1515610c4957600080fd5b6001868285856040516000815260200160405260006040516020015260405193845260ff90921660208085019190915260408085019290925260608401929092526080909201915160208103908084039060008661646e5a03f11515610cae57600080fd5b5050602060405103519350600160a060020a0384161515610cce57600080fd5b505050929150505600a165627a7a723058206ff29cc8af7374af55c1a6f5b3f6fe9e06e065d3093a29c6627594426f2332a10029",
  "source": "pragma solidity ^0.4.18;\n\nimport './ECVerification.sol';\nimport './lib/safeMath.sol';\nimport './token/Token.sol';\n\ncontract Channel is ECVerification {\n\n    using SafeMath for uint256;\n\n    address factory;\n    address public sender;\n    address public receiver;\n    uint public challengePeriod;\n    uint public startDate;\n    uint challengeStartTime;\n\n    uint depositedBalance = 0;\n    uint withdrawnBalance = 0;\n    uint balanceInChallenge = 0;\n\n    enum State {Initiated, Recharged, InChallenge, Settled }\n    State status;\n\n    Token public token;\n\n    modifier onlyFactory() {\n        require(msg.sender == factory);\n        _;\n    }\n\n    modifier originReceiver() {\n        require(tx.origin == receiver);\n        _;\n    }\n\n    modifier originSender() {\n        require(tx.origin == sender);\n        _;\n    }\n\n    modifier originSenderOrReceiver() {\n        require(tx.origin == sender || tx.origin == receiver);\n        _;\n    }\n\n    function Channel(address _receiver, address _sender, address _tokenAddress, uint _challengePeriod) \n    public\n    {       \n        token = Token(_tokenAddress);\n        require(token.totalSupply() > 0);\n        receiver = _receiver;\n        sender = _sender;        \n        challengePeriod = _challengePeriod;\n        startDate = now;\n        status = State.Initiated;\n    }\n\n    function recharge(uint _deposit) \n    external \n    onlyFactory originSender \n    returns (bool)\n    {\n        require(token.allowance(sender, address(this)) >= _deposit);\n        require(token.transferFrom(sender, address(this), _deposit));\n        depositedBalance = _deposit;\n        status = State.Recharged;\n\n        return true;\n    }\n\n    function withdraw(uint _balance, bytes _signedBalanceMsg)\n    external\n    originReceiver onlyFactory\n    returns (bool)\n    {\n        require(status == State.Recharged);\n        require(_balance >= depositedBalance.sub(withdrawnBalance));\n                \n        // Derive sender address from signed balance proof\n        address senderAddress = extractBalanceProofSignature(\n            receiver,\n            _balance,\n            _signedBalanceMsg\n        );\n        require(senderAddress == sender);\n        // Update total withdrawn balance\n        withdrawnBalance = withdrawnBalance.add(_balance);\n\n        // Send the remaining balance to the receiver\n        require(token.transfer(receiver, _balance));\n\n        return true;\n    }\n    \n    function mutualSettlement(uint _balance, bytes _signedBalanceMsg, bytes _signedClosingMsg)\n    external\n    originSenderOrReceiver onlyFactory\n    returns (bool)\n    {\n        require(_balance <= depositedBalance);\n        \n        // Derive sender address from signed balance proof\n        address senderAddr = extractBalanceProofSignature(\n            receiver,\n            _balance,\n            _signedBalanceMsg\n        );\n\n        // Derive receiver address from closing signature\n        address receiverAddr = extractClosingSignature(\n            senderAddr,\n            _balance,\n            _signedClosingMsg\n        );\n        require(receiverAddr == receiver);\n\n        // Both signatures have been verified and the channel can be settled.\n        require(settleChannel(sender, receiver, _balance));\n        return true;\n    }\n\n    function challengedSettlement(uint _balance)\n    external\n    originSender onlyFactory\n    returns (bool)\n    {\n        require(status == State.Recharged);\n        require(_balance <= depositedBalance);\n\n        challengeStartTime = now;\n        status = State.InChallenge;\n        balanceInChallenge = _balance;\n        return true;\n    }\n    \n    function afterChallengeSettle() \n    external \n    originSender onlyFactory\n    returns (uint)\n    {\n        require(status == State.InChallenge); \n        require(now > challengeStartTime + challengePeriod * 1 seconds);  \n\n        require(settleChannel(sender, receiver, balanceInChallenge));\n        return balanceInChallenge;\n    }    \n\n\n    function getChannelInfo() onlyFactory external view returns (address, address, uint, uint, State, uint, uint){\n        return( sender,\n                receiver,\n                challengePeriod,\n                startDate,\n                status,\n                depositedBalance,\n                withdrawnBalance\n                );\n    }\n    \n    function extractBalanceProofSignature(address _receiverAddress, uint256 _balance, bytes _signedBalanceMsg)\n    internal view\n    returns (address)\n    {\n        bytes32 msgHash = keccak256(\n            keccak256(\n                \"string msgId\",\n                \"address receiver\",\n                \"uint balance\",\n                \"address contract\"\n            ),\n            keccak256(\n                \"Sender Balance Proof Sign\",\n                _receiverAddress,\n                _balance,   \n                address(this)\n            )\n        );\n\n        // Derive address from signature\n        address signer = ECVerification.ecverify(msgHash, _signedBalanceMsg);\n        return signer;\n    }\n\n    function extractClosingSignature(address _senderAddress, uint _balance, bytes _signedClosingMsg)\n    internal view\n    returns (address)\n    {\n        bytes32 msgHash = keccak256(\n            keccak256(\n                \"string msgId\",\n                \"address sender\",\n                \"uint balance\",\n                \"address contract\"\n            ),\n            keccak256(\n                \"Receiver Closing Sign\",\n                _senderAddress,\n                _balance,\n                address(this)\n            )\n        );\n\n        // Derive address from signature\n        address signer = ECVerification.ecverify(msgHash, _signedClosingMsg);\n        return signer;\n    } \n\n    function settleChannel(address _senderAddress, address _receiverAddress, uint _balance)\n    internal \n    returns (bool)\n    {\n        // Send the unwithdrawn _balance to the receiver\n        uint receiverRemainingTokens = _balance.sub(withdrawnBalance);\n        status = State.Settled;\n        require(token.transfer(_receiverAddress, receiverRemainingTokens));\n\n        // Send remaining tokens back to sender\n        require(token.transfer(_senderAddress, depositedBalance.sub(receiverRemainingTokens)));\n        return true;\n    }\n\n}",
  "sourcePath": "/home/aniket/projects/paymentchannel/contracts/Channel.sol",
  "compiler": {
    "name": "solc",
    "version": "0.4.18+commit.9cf6e910.Emscripten.clang"
  },
  "schemaVersion": "1.0.1",
  "updatedAt": "2018-02-16T18:08:49.597Z"
}