{
  "contractName": "ECVerification",
  "abi": [
    {
      "constant": true,
      "inputs": [
        {
          "name": "hash",
          "type": "bytes32"
        },
        {
          "name": "signature",
          "type": "bytes"
        }
      ],
      "name": "ecverify",
      "outputs": [
        {
          "name": "signatureAddress",
          "type": "address"
        }
      ],
      "payable": false,
      "stateMutability": "pure",
      "type": "function"
    }
  ],
  "bytecode": "0x6060604052341561000f57600080fd5b6102a18061001e6000396000f3006060604052600436106100405763ffffffff7c0100000000000000000000000000000000000000000000000000000000600035041663e47c59028114610045575b600080fd5b341561005057600080fd5b61009b600480359060446024803590810190830135806020601f820181900481020160405190810160405281815292919060208401838380828437509496506100c495505050505050565b60405173ffffffffffffffffffffffffffffffffffffffff909116815260200160405180910390f35b6000806000806100d2610263565b85516041146100e057600080fd5b6020860151935060408601519250606086015160001a9150601b8260ff16101561010b57601b820191505b8160ff16601b148061012057508160ff16601c145b151561012b57600080fd5b6040805190810160405280601c81526020017f19457468657265756d205369676e6564204d6573736167653a0a333200000000815250905080876040518083805190602001908083835b602083106101945780518252601f199092019160209182019101610175565b6001836020036101000a03801982511681845116179092525050509190910192835250506020019050604051809103902096506001878386866040516000815260200160405260006040516020015260405193845260ff90921660208085019190915260408085019290925260608401929092526080909201915160208103908084039060008661646e5a03f1151561022c57600080fd5b505060206040510351945073ffffffffffffffffffffffffffffffffffffffff8516151561025957600080fd5b5050505092915050565b602060405190810160405260008152905600a165627a7a723058203a5d3b43bd00054a9157eeadfe9bf08d2b3f64f7fc07183076cac6733fc929f40029",
  "source": "pragma solidity ^0.4.18;\n\ncontract ECVerification {\n\n    function ecverify(bytes32 hash, bytes signature) public pure returns (address signatureAddress) {\n        require(signature.length == 65);\n\n        bytes32 r;\n        bytes32 s;\n        uint8 v;\n\n        // The signature format is a compact form of:\n        //   {bytes32 r}{bytes32 s}{uint8 v}\n        // Compact means, uint8 is not padded to 32 bytes.\n        assembly {\n            r := mload(add(signature, 32))\n            s := mload(add(signature, 64))\n\n            // Here we are loading the last 32 bytes, including 31 bytes of 's'.\n            v := byte(0, mload(add(signature, 96)))\n        }\n\n        // Version of signature should be 27 or 28, but 0 and 1 are also possible\n        if (v < 27) {\n            v += 27;\n        }\n\n        require(v == 27 || v == 28);\n        /* \n        * https://github.com/ethereum/go-ethereum/issues/3731\n        */\n        bytes memory prefix = \"\\x19Ethereum Signed Message:\\n32\";\n        hash = keccak256(prefix, hash);\n\n        signatureAddress = ecrecover(hash, v, r, s);\n\n        // ecrecover returns zero on error\n        require(signatureAddress != 0x0);\n\n        return signatureAddress;\n    }\n}",
  "sourcePath": "/home/aniket/projects/wandx/paymentchannel/contracts/ECVerification.sol",
  "compiler": {
    "name": "solc",
    "version": "0.4.18+commit.9cf6e910.Emscripten.clang"
  },
  "schemaVersion": "1.0.1",
  "updatedAt": "2018-02-20T20:29:02.577Z"
}