{
  "contractName": "Factory",
  "abi": [
    {
      "constant": true,
      "inputs": [],
      "name": "channel",
      "outputs": [
        {
          "name": "",
          "type": "address"
        }
      ],
      "payable": false,
      "stateMutability": "view",
      "type": "function"
    },
    {
      "constant": false,
      "inputs": [
        {
          "name": "_channelAddress",
          "type": "address"
        }
      ],
      "name": "channelAfterChallengeSettlement",
      "outputs": [],
      "payable": false,
      "stateMutability": "nonpayable",
      "type": "function"
    },
    {
      "constant": false,
      "inputs": [
        {
          "name": "_channelAddress",
          "type": "address"
        },
        {
          "name": "_balance",
          "type": "uint256"
        }
      ],
      "name": "channelChallengedSettlement",
      "outputs": [],
      "payable": false,
      "stateMutability": "nonpayable",
      "type": "function"
    },
    {
      "constant": false,
      "inputs": [
        {
          "name": "_channelAddress",
          "type": "address"
        },
        {
          "name": "_deposit",
          "type": "uint256"
        }
      ],
      "name": "rechargeChannel",
      "outputs": [],
      "payable": false,
      "stateMutability": "nonpayable",
      "type": "function"
    },
    {
      "constant": false,
      "inputs": [
        {
          "name": "_receiver",
          "type": "address"
        },
        {
          "name": "_tokenAddress",
          "type": "address"
        },
        {
          "name": "_challengePeriod",
          "type": "uint256"
        }
      ],
      "name": "createChannel",
      "outputs": [],
      "payable": false,
      "stateMutability": "nonpayable",
      "type": "function"
    },
    {
      "constant": false,
      "inputs": [
        {
          "name": "_channelAddress",
          "type": "address"
        },
        {
          "name": "_balance",
          "type": "uint256"
        },
        {
          "name": "_balanceMsg",
          "type": "bytes"
        },
        {
          "name": "_closingMsg",
          "type": "bytes"
        }
      ],
      "name": "channelMutualSettlement",
      "outputs": [],
      "payable": false,
      "stateMutability": "nonpayable",
      "type": "function"
    },
    {
      "constant": false,
      "inputs": [
        {
          "name": "_channelAddress",
          "type": "address"
        },
        {
          "name": "_balance",
          "type": "uint256"
        },
        {
          "name": "_balanceMsg",
          "type": "bytes"
        }
      ],
      "name": "withdrawFromChannel",
      "outputs": [],
      "payable": false,
      "stateMutability": "nonpayable",
      "type": "function"
    },
    {
      "constant": true,
      "inputs": [
        {
          "name": "_channelAddress",
          "type": "address"
        }
      ],
      "name": "getInfo",
      "outputs": [
        {
          "name": "",
          "type": "address"
        },
        {
          "name": "",
          "type": "address"
        },
        {
          "name": "",
          "type": "uint256"
        },
        {
          "name": "",
          "type": "uint256"
        },
        {
          "name": "",
          "type": "uint8"
        },
        {
          "name": "",
          "type": "uint256"
        },
        {
          "name": "",
          "type": "uint256"
        }
      ],
      "payable": false,
      "stateMutability": "view",
      "type": "function"
    },
    {
      "inputs": [],
      "payable": false,
      "stateMutability": "nonpayable",
      "type": "constructor"
    },
    {
      "anonymous": false,
      "inputs": [
        {
          "indexed": true,
          "name": "_senderAddress",
          "type": "address"
        },
        {
          "indexed": true,
          "name": "_receiverAddress",
          "type": "address"
        },
        {
          "indexed": false,
          "name": "_channelAddress",
          "type": "address"
        }
      ],
      "name": "ChannelCreated",
      "type": "event"
    },
    {
      "anonymous": false,
      "inputs": [
        {
          "indexed": true,
          "name": "_senderAddress",
          "type": "address"
        },
        {
          "indexed": false,
          "name": "_deposit",
          "type": "uint256"
        }
      ],
      "name": "ChannelRecharged",
      "type": "event"
    },
    {
      "anonymous": false,
      "inputs": [
        {
          "indexed": true,
          "name": "_receiverAddress",
          "type": "address"
        },
        {
          "indexed": false,
          "name": "_withdrawnBalance",
          "type": "uint256"
        }
      ],
      "name": "ChannelWithdraw",
      "type": "event"
    },
    {
      "anonymous": false,
      "inputs": [
        {
          "indexed": true,
          "name": "_settleAddress",
          "type": "address"
        },
        {
          "indexed": false,
          "name": "_balance",
          "type": "uint256"
        }
      ],
      "name": "ChannelSettled",
      "type": "event"
    },
    {
      "anonymous": false,
      "inputs": [
        {
          "indexed": true,
          "name": "_senderAddress",
          "type": "address"
        },
        {
          "indexed": false,
          "name": "_balance",
          "type": "uint256"
        }
      ],
      "name": "ChannelChallenged",
      "type": "event"
    }
  ],
  "bytecode": "0x6060604052341561000f57600080fd5b60008054600160a060020a033316600160a060020a03199091161790556118f68061003b6000396000f3006060604052600436106100745763ffffffff60e060020a6000350416637bbdb96e81146100795780637f085cbc146100a85780638ef05104146100c957806396ee4b27146100eb578063b09684161461010d578063d3045a6b14610135578063de8dc45e14610170578063ffdd5cf11461019f575b600080fd5b341561008457600080fd5b61008c610219565b604051600160a060020a03909116815260200160405180910390f35b34156100b357600080fd5b6100c7600160a060020a0360043516610228565b005b34156100d457600080fd5b6100c7600160a060020a036004351660243561030e565b34156100f657600080fd5b6100c7600160a060020a0360043516602435610414565b341561011857600080fd5b6100c7600160a060020a036004358116906024351660443561051a565b341561014057600080fd5b6100c760048035600160a060020a03169060248035916044358083019290820135916064359182019101356106d9565b341561017b57600080fd5b6100c760048035600160a060020a0316906024803591604435918201910135610826565b34156101aa57600080fd5b6101be600160a060020a0360043516610952565b604051600160a060020a038089168252871660208201526040810186905260608101859052608081018460038111156101f357fe5b60ff16815260200183815260200182815260200197505050505050505060405180910390f35b600354600160a060020a031681565b600081600160a060020a03811615801590610247575061024781610a21565b151561025257600080fd5b60038054600160a060020a031916600160a060020a0385811691909117918290551663e584de966000604051602001526040518163ffffffff1660e060020a028152600401602060405180830381600087803b15156102b057600080fd5b6102c65a03f115156102c157600080fd5b5050506040518051925050600160a060020a0333167f9ff61ae2738ff019e2ecee19645334d60548c332b79b2c8e316e15eb355c4dc98360405190815260200160405180910390a2505050565b81600160a060020a0381161580159061032b575061032b81610a21565b151561033657600080fd5b816000811161034457600080fd5b60038054600160a060020a031916600160a060020a03868116919091179182905516630eeb30dd8460006040516020015260405160e060020a63ffffffff84160281526004810191909152602401602060405180830381600087803b15156103ab57600080fd5b6102c65a03f115156103bc57600080fd5b5050506040518051905015156103d157600080fd5b33600160a060020a03167f63e52bfe559751f84b25f54a5fb9a047e3412b951f2c6db1bdbe3f76cf197ed48460405190815260200160405180910390a250505050565b81600160a060020a03811615801590610431575061043181610a21565b151561043c57600080fd5b816000811161044a57600080fd5b60038054600160a060020a031916600160a060020a0386811691909117918290551663ef299b0b8460006040516020015260405160e060020a63ffffffff84160281526004810191909152602401602060405180830381600087803b15156104b157600080fd5b6102c65a03f115156104c257600080fd5b5050506040518051905015156104d757600080fd5b33600160a060020a03167fab072b17b98fef769c70139f5cfd791219052120cf7e41de0f678d4aca9778e18460405190815260200160405180910390a250505050565b600083600160a060020a038116151561053257600080fd5b83600160a060020a0381161580159061054f575061054f81610a21565b151561055a57600080fd5b836000811161056857600080fd5b33935086848787610577610a29565b600160a060020a0394851681529284166020840152921660408083019190915260608201929092526080019051809103906000f08015156105b757600080fd5b60038054600160a060020a031916600160a060020a0392831617908190556105df9116610a21565b15156105ea57600080fd5b600160a060020a03841660009081526001602081905260409091208054909181016106158382610a39565b506000918252602080832060035492018054600160a060020a031916600160a060020a039384161790559089168252600290526040902080546001810161065c8382610a39565b506000918252602090912060038054929091018054600160a060020a031916600160a060020a039384161790555488821691868116917fa1df915b8442d05811e14e9963bdfe437dceea6c3af491bab0b7fc499232f18f9116604051600160a060020a03909116815260200160405180910390a350505050505050565b85600160a060020a038116158015906106f657506106f681610a21565b151561070157600080fd5b856000811161070f57600080fd5b60038054600160a060020a031916600160a060020a038a811691909117918290551663f4da2db488888888886000604051602001526040518663ffffffff1660e060020a0281526004018086815260200180602001806020018381038352878782818152602001925080828437909101848103835285815260200190508585808284378201915050975050505050505050602060405180830381600087803b15156107b957600080fd5b6102c65a03f115156107ca57600080fd5b5050506040518051905015156107df57600080fd5b33600160a060020a03167f9ff61ae2738ff019e2ecee19645334d60548c332b79b2c8e316e15eb355c4dc98860405190815260200160405180910390a25050505050505050565b83600160a060020a03811615801590610843575061084381610a21565b151561084e57600080fd5b836000811161085c57600080fd5b60038054600160a060020a031916600160a060020a0388811691909117918290551663030ba25d86868660006040516020015260405160e060020a63ffffffff8616028152600481018481526040602483019081526044830184905290916064018484808284378201915050945050505050602060405180830381600087803b15156108e757600080fd5b6102c65a03f115156108f857600080fd5b50505060405180519050151561090d57600080fd5b33600160a060020a03167f496c5d22aacd4871af93cb6e0c38d01ea0ddbafd85a11494732ffcbc5fe7f85a8660405190815260200160405180910390a2505050505050565b600080808080808087600160a060020a03811615801590610977575061097781610a21565b151561098257600080fd5b88600160a060020a03166330d281e0600060405160e001526040518163ffffffff1660e060020a02815260040160e060405180830381600087803b15156109c857600080fd5b6102c65a03f115156109d957600080fd5b50505060405180519060200180519060200180519060200180519060200180519060200180519060200180519050975097509750975097509750975050919395979092949650565b6000903b1190565b604051610e4780610a8483390190565b815481835581811511610a5d57600083815260209020610a5d918101908301610a62565b505050565b610a8091905b80821115610a7c5760008155600101610a68565b5090565b9056006060604052600060065560006007556000600855341561001e57600080fd5b604051608080610e47833981016040528080519190602001805191906020018051919060200180516009805461010060a860020a031916610100600160a060020a038781168202929092179283905592945060009350919004166318160ddd82604051602001526040518163ffffffff167c0100000000000000000000000000000000000000000000000000000000028152600401602060405180830381600087803b15156100cc57600080fd5b6102c65a03f115156100dd57600080fd5b505050604051805190501115156100f357600080fd5b60028054600160a060020a03958616600160a060020a031991821617909155600180549490951693169290921790925560035550426004556009805460ff19169055610d03806101446000396000f3006060604052600436106100955763ffffffff60e060020a600035041663030ba25d811461009a5780630b97bc86146100d05780630eeb30dd146100f557806330d281e01461010b57806367e404ce14610179578063e584de96146101a8578063ef299b0b146101bb578063f3f480d9146101d1578063f4da2db4146101e4578063f7260d3e14610212578063fc0c546a14610225575b600080fd5b34156100a557600080fd5b6100bc600480359060248035908101910135610238565b604051901515815260200160405180910390f35b34156100db57600080fd5b6100e36103c5565b60405190815260200160405180910390f35b341561010057600080fd5b6100bc6004356103cb565b341561011657600080fd5b61011e61044a565b604051600160a060020a0380891682528716602082015260408101869052606081018590526080810184600381111561015357fe5b60ff16815260200183815260200182815260200197505050505050505060405180910390f35b341561018457600080fd5b61018c6104ab565b604051600160a060020a03909116815260200160405180910390f35b34156101b357600080fd5b6100e36104ba565b34156101c657600080fd5b6100bc600435610554565b34156101dc57600080fd5b6100e36106d7565b34156101ef57600080fd5b6100bc6004803590602480358082019290810135916044359081019101356106dd565b341561021d57600080fd5b61018c610818565b341561023057600080fd5b61018c610827565b600254600090819032600160a060020a0390811691161461025857600080fd5b60005433600160a060020a0390811691161461027357600080fd5b600160095460ff16600381111561028657fe5b1461029057600080fd5b6007546006546102a59163ffffffff61083b16565b8510156102b157600080fd5b6002546102f690600160a060020a0316868686806020601f8201819004810201604051908101604052818152929190602084018383808284375061084d945050505050565b600154909150600160a060020a0380831691161461031357600080fd5b600754610326908663ffffffff61098616565b600755600954600254600160a060020a0361010090920482169163a9059cbb91168760006040516020015260405160e060020a63ffffffff8516028152600160a060020a0390921660048301526024820152604401602060405180830381600087803b151561039457600080fd5b6102c65a03f115156103a557600080fd5b5050506040518051905015156103ba57600080fd5b506001949350505050565b60045481565b60015460009032600160a060020a039081169116146103e957600080fd5b60005433600160a060020a0390811691161461040457600080fd5b600160095460ff16600381111561041757fe5b1461042157600080fd5b60065482111561043057600080fd5b50426005556009805460ff19166002179055600855600190565b6000805481908190819081908190819033600160a060020a0390811691161461047257600080fd5b5050600154600254600354600454600954600654600754600160a060020a039687169c969095169a5092985090965060ff169450925090565b600154600160a060020a031681565b60015460009032600160a060020a039081169116146104d857600080fd5b60005433600160a060020a039081169116146104f357600080fd5b600260095460ff16600381111561050657fe5b1461051057600080fd5b60035460055401421161052257600080fd5b60015460025460085461054292600160a060020a0390811692169061099c565b151561054d57600080fd5b5060085490565b6000805433600160a060020a0390811691161461057057600080fd5b60015432600160a060020a0390811691161461058b57600080fd5b6009546001548391600160a060020a0361010090910481169163dd62ed3e91163060006040516020015260405160e060020a63ffffffff8516028152600160a060020a03928316600482015291166024820152604401602060405180830381600087803b15156105fa57600080fd5b6102c65a03f1151561060b57600080fd5b505050604051805190501015151561062257600080fd5b600954600154600160a060020a036101009092048216916323b872dd9116308560006040516020015260405160e060020a63ffffffff8616028152600160a060020a0393841660048201529190921660248201526044810191909152606401602060405180830381600087803b151561069a57600080fd5b6102c65a03f115156106ab57600080fd5b5050506040518051905015156106c057600080fd5b506006556009805460ff1916600190811790915590565b60035481565b6001546000908190819032600160a060020a039081169116148061070f575060025432600160a060020a039081169116145b151561071a57600080fd5b60005433600160a060020a0390811691161461073557600080fd5b60065488111561074457600080fd5b60025461078990600160a060020a0316898989806020601f8201819004810201604051908101604052818152929190602084018383808284375061084d945050505050565b91506107c5828987878080601f016020809104026020016040519081016040528181529291906020840183838082843750610ac2945050505050565b600254909150600160a060020a038083169116146107e257600080fd5b6001546002546107ff91600160a060020a0390811691168a61099c565b151561080a57600080fd5b506001979650505050505050565b600254600160a060020a031681565b6009546101009004600160a060020a031681565b60008282111561084757fe5b50900390565b60008060006040517f737472696e67206d73674964000000000000000000000000000000000000000081527f6164647265737320726563656976657200000000000000000000000000000000600c8201527f75696e742062616c616e63650000000000000000000000000000000000000000601c8201527f6164647265737320636f6e747261637400000000000000000000000000000000602882015260380160405180910390208686306040517f53656e6465722042616c616e63652050726f6f66205369676e0000000000000081526c01000000000000000000000000600160a060020a0394851681026019830152602d820193909352921602604d82015260610160405180910390206040519182526020820152604090810190518091039020915061097c8285610bed565b9695505050505050565b60008282018381101561099557fe5b9392505050565b6000806109b46007548461083b90919063ffffffff16565b6009805460ff191660031790819055909150600160a060020a036101009091041663a9059cbb858360006040516020015260405160e060020a63ffffffff8516028152600160a060020a0390921660048301526024820152604401602060405180830381600087803b1515610a2857600080fd5b6102c65a03f11515610a3957600080fd5b505050604051805190501515610a4e57600080fd5b600954600654610100909104600160a060020a03169063a9059cbb908790610a76908561083b565b60006040516020015260405160e060020a63ffffffff8516028152600160a060020a0390921660048301526024820152604401602060405180830381600087803b151561039457600080fd5b60008060006040517f737472696e67206d73674964000000000000000000000000000000000000000081527f616464726573732073656e646572000000000000000000000000000000000000600c8201527f75696e742062616c616e63650000000000000000000000000000000000000000601a8201527f6164647265737320636f6e747261637400000000000000000000000000000000602682015260360160405180910390208686306040517f526563656976657220436c6f73696e67205369676e000000000000000000000081526c01000000000000000000000000600160a060020a039485168102601583015260298201939093529216026049820152605d0160405180910390206040519182526020820152604090810190518091039020915061097c82855b6000806000808451604114610c0157600080fd5b6020850151925060408501519150606085015160001a9050601b8160ff161015610c2957601b015b8060ff16601b1480610c3e57508060ff16601c145b1515610c4957600080fd5b6001868285856040516000815260200160405260006040516020015260405193845260ff90921660208085019190915260408085019290925260608401929092526080909201915160208103908084039060008661646e5a03f11515610cae57600080fd5b5050602060405103519350600160a060020a0384161515610cce57600080fd5b505050929150505600a165627a7a723058206ff29cc8af7374af55c1a6f5b3f6fe9e06e065d3093a29c6627594426f2332a10029a165627a7a72305820aff87e7c4c383171453bd42c8c7168ff712935bc6b11ffb006ad998da0396a460029",
  "source": "pragma solidity ^0.4.18;\n\nimport './Channel.sol';\nimport './lib/safeMath.sol';\n\ncontract Factory {\n    address owner;\n    mapping(address => address[]) channelsAsSender;\n    mapping(address => address[]) channelsAsReceiver;\n\n    Channel public channel;\n\n    modifier nonZero(uint _param) {\n        require(_param > 0);\n        _;\n    }\n\n    modifier nonZeroAddress(address _addr) {\n        require(_addr != address(0));\n        _;\n    }\n\n    modifier isContractAddress(address _addr) {\n        require(_addr != address(0) && addressHasCode(_addr));\n        _;\n    }\n\n    event ChannelCreated(\n        address indexed _senderAddress,\n        address indexed _receiverAddress,\n        address _channelAddress);\n    \n    event ChannelRecharged(\n        address indexed _senderAddress,\n        uint _deposit);\n\n    event ChannelWithdraw(\n        address indexed _receiverAddress,\n        uint _withdrawnBalance);\n\n    event ChannelSettled(\n        address indexed _settleAddress,\n        uint _balance);\n\n    event ChannelChallenged(\n        address indexed _senderAddress,\n        uint _balance);\n\n    function Factory() public {\n        owner = msg.sender;\n    }\n\n\n    function createChannel (address _receiver, address _tokenAddress, uint _challengePeriod) \n    external\n    nonZeroAddress(_receiver) isContractAddress(_tokenAddress) nonZero(_challengePeriod)\n    {\n        address sender = msg.sender;\n        channel = new Channel(_receiver,  sender, _tokenAddress, _challengePeriod);\n        require(addressHasCode(channel));\n        channelsAsSender[sender].push(channel);\n        channelsAsReceiver[_receiver].push(channel);\n\n        ChannelCreated(sender, _receiver, channel);\n    }\n\n    function rechargeChannel(address _channelAddress, uint _deposit) \n    external\n    isContractAddress(_channelAddress) nonZero(_deposit) \n    {\n        channel = Channel(_channelAddress);\n        require(channel.recharge(_deposit));\n\n        ChannelRecharged(msg.sender, _deposit);\n    }\n\n    function withdrawFromChannel(address _channelAddress, uint _balance, bytes _balanceMsg) \n    external\n    isContractAddress(_channelAddress) nonZero(_balance) \n    {\n        channel = Channel(_channelAddress);\n        require(channel.withdraw(_balance, _balanceMsg));\n\n        ChannelWithdraw(msg.sender, _balance);\n    }\n\n    function channelMutualSettlement(address _channelAddress, uint _balance, bytes _balanceMsg, bytes _closingMsg) \n    external\n    isContractAddress(_channelAddress) nonZero(_balance) \n    {\n        channel = Channel(_channelAddress);\n        require(channel.mutualSettlement(_balance, _balanceMsg, _closingMsg));\n\n        ChannelSettled(msg.sender, _balance);\n    }\n\n    function channelChallengedSettlement(address _channelAddress, uint _balance) \n    external\n    isContractAddress(_channelAddress) nonZero(_balance) \n    {\n        channel = Channel(_channelAddress);\n        require(channel.challengedSettlement(_balance));\n\n        ChannelChallenged(msg.sender, _balance);\n    }\n\n    function channelAfterChallengeSettlement(address _channelAddress) \n    external\n    isContractAddress(_channelAddress)\n    {\n        channel = Channel(_channelAddress);\n        var balance = channel.afterChallengeSettle();\n\n        ChannelSettled(msg.sender, balance);\n    }\n\n    function getInfo(address _channelAddress) \n    external view \n    isContractAddress(_channelAddress)\n    returns (address, address, uint, uint, Channel.State, uint, uint)\n    {\n        return Channel(_channelAddress).getChannelInfo();\n    }\n\n    function addressHasCode(address _contract) internal view returns (bool) {\n        uint size;\n        assembly {\n            size := extcodesize(_contract)\n        }\n        return size > 0;\n    }\n}",
  "sourcePath": "/home/aniket/projects/paymentchannel/contracts/Factory.sol",
  "compiler": {
    "name": "solc",
    "version": "0.4.18+commit.9cf6e910.Emscripten.clang"
  },
  "schemaVersion": "1.0.1",
  "updatedAt": "2018-02-16T18:09:22.990Z"
}