{
  "contractName": "Factory",
  "abi": [
    {
      "constant": true,
      "inputs": [],
      "name": "getAllChannelsAsReceiver",
      "outputs": [
        {
          "name": "",
          "type": "address[]"
        }
      ],
      "payable": false,
      "stateMutability": "view",
      "type": "function"
    },
    {
      "constant": true,
      "inputs": [],
      "name": "channel",
      "outputs": [
        {
          "name": "",
          "type": "address"
        }
      ],
      "payable": false,
      "stateMutability": "view",
      "type": "function"
    },
    {
      "constant": false,
      "inputs": [
        {
          "name": "_channelAddress",
          "type": "address"
        }
      ],
      "name": "channelAfterChallengeSettlement",
      "outputs": [],
      "payable": false,
      "stateMutability": "nonpayable",
      "type": "function"
    },
    {
      "constant": true,
      "inputs": [],
      "name": "owner",
      "outputs": [
        {
          "name": "",
          "type": "address"
        }
      ],
      "payable": false,
      "stateMutability": "view",
      "type": "function"
    },
    {
      "constant": false,
      "inputs": [
        {
          "name": "_channelAddress",
          "type": "address"
        },
        {
          "name": "_balance",
          "type": "uint256"
        }
      ],
      "name": "channelChallengedSettlement",
      "outputs": [],
      "payable": false,
      "stateMutability": "nonpayable",
      "type": "function"
    },
    {
      "constant": false,
      "inputs": [
        {
          "name": "_channelAddress",
          "type": "address"
        },
        {
          "name": "_deposit",
          "type": "uint256"
        }
      ],
      "name": "rechargeChannel",
      "outputs": [],
      "payable": false,
      "stateMutability": "nonpayable",
      "type": "function"
    },
    {
      "constant": false,
      "inputs": [
        {
          "name": "_receiver",
          "type": "address"
        },
        {
          "name": "_tokenAddress",
          "type": "address"
        },
        {
          "name": "_challengePeriod",
          "type": "uint256"
        }
      ],
      "name": "createChannel",
      "outputs": [],
      "payable": false,
      "stateMutability": "nonpayable",
      "type": "function"
    },
    {
      "constant": true,
      "inputs": [],
      "name": "getAllChannelsAsSender",
      "outputs": [
        {
          "name": "",
          "type": "address[]"
        }
      ],
      "payable": false,
      "stateMutability": "view",
      "type": "function"
    },
    {
      "constant": false,
      "inputs": [
        {
          "name": "_channelAddress",
          "type": "address"
        },
        {
          "name": "_balance",
          "type": "uint256"
        },
        {
          "name": "_balanceMsg",
          "type": "bytes"
        },
        {
          "name": "_closingMsg",
          "type": "bytes"
        }
      ],
      "name": "channelMutualSettlement",
      "outputs": [],
      "payable": false,
      "stateMutability": "nonpayable",
      "type": "function"
    },
    {
      "constant": false,
      "inputs": [
        {
          "name": "_channelAddress",
          "type": "address"
        },
        {
          "name": "_balance",
          "type": "uint256"
        },
        {
          "name": "_balanceMsg",
          "type": "bytes"
        }
      ],
      "name": "withdrawFromChannel",
      "outputs": [],
      "payable": false,
      "stateMutability": "nonpayable",
      "type": "function"
    },
    {
      "constant": true,
      "inputs": [
        {
          "name": "_channelAddress",
          "type": "address"
        }
      ],
      "name": "getInfo",
      "outputs": [
        {
          "name": "",
          "type": "address"
        },
        {
          "name": "",
          "type": "address"
        },
        {
          "name": "",
          "type": "address"
        },
        {
          "name": "",
          "type": "uint256"
        },
        {
          "name": "",
          "type": "uint256"
        },
        {
          "name": "",
          "type": "uint8"
        },
        {
          "name": "",
          "type": "uint256"
        },
        {
          "name": "",
          "type": "uint256"
        }
      ],
      "payable": false,
      "stateMutability": "view",
      "type": "function"
    },
    {
      "inputs": [],
      "payable": false,
      "stateMutability": "nonpayable",
      "type": "constructor"
    },
    {
      "anonymous": false,
      "inputs": [
        {
          "indexed": true,
          "name": "_senderAddress",
          "type": "address"
        },
        {
          "indexed": true,
          "name": "_receiverAddress",
          "type": "address"
        },
        {
          "indexed": false,
          "name": "_channelAddress",
          "type": "address"
        }
      ],
      "name": "ChannelCreated",
      "type": "event"
    },
    {
      "anonymous": false,
      "inputs": [
        {
          "indexed": true,
          "name": "_senderAddress",
          "type": "address"
        },
        {
          "indexed": false,
          "name": "_deposit",
          "type": "uint256"
        }
      ],
      "name": "ChannelRecharged",
      "type": "event"
    },
    {
      "anonymous": false,
      "inputs": [
        {
          "indexed": true,
          "name": "_receiverAddress",
          "type": "address"
        },
        {
          "indexed": false,
          "name": "_withdrawnBalance",
          "type": "uint256"
        }
      ],
      "name": "ChannelWithdraw",
      "type": "event"
    },
    {
      "anonymous": false,
      "inputs": [
        {
          "indexed": true,
          "name": "_settleAddress",
          "type": "address"
        },
        {
          "indexed": false,
          "name": "_balance",
          "type": "uint256"
        }
      ],
      "name": "ChannelSettled",
      "type": "event"
    },
    {
      "anonymous": false,
      "inputs": [
        {
          "indexed": true,
          "name": "_senderAddress",
          "type": "address"
        },
        {
          "indexed": false,
          "name": "_balance",
          "type": "uint256"
        }
      ],
      "name": "ChannelChallenged",
      "type": "event"
    }
  ],
  "bytecode": "0x6060604052341561000f57600080fd5b60008054600160a060020a033316600160a060020a0319909116179055611dd48061003b6000396000f3006060604052600436106100955763ffffffff60e060020a60003504166313a29393811461009a5780637bbdb96e146101005780637f085cbc1461012f5780638da5cb5b146101505780638ef051041461016357806396ee4b2714610185578063b0968416146101a7578063baadde82146101cf578063d3045a6b146101e2578063de8dc45e1461021d578063ffdd5cf11461024c575b600080fd5b34156100a557600080fd5b6100ad6102cf565b60405160208082528190810183818151815260200191508051906020019060200280838360005b838110156100ec5780820151838201526020016100d4565b505050509050019250505060405180910390f35b341561010b57600080fd5b61011361035b565b604051600160a060020a03909116815260200160405180910390f35b341561013a57600080fd5b61014e600160a060020a036004351661036a565b005b341561015b57600080fd5b610113610450565b341561016e57600080fd5b61014e600160a060020a036004351660243561045f565b341561019057600080fd5b61014e600160a060020a0360043516602435610565565b34156101b257600080fd5b61014e600160a060020a036004358116906024351660443561066b565b34156101da57600080fd5b6100ad61082a565b34156101ed57600080fd5b61014e60048035600160a060020a03169060248035916044358083019290820135916064359182019101356108b3565b341561022857600080fd5b61014e60048035600160a060020a0316906024803591604435918201910135610a00565b341561025757600080fd5b61026b600160a060020a0360043516610b2c565b604051600160a060020a03808a168252888116602083015287166040820152606081018690526080810185905260a081018460038111156102a857fe5b60ff1681526020018381526020018281526020019850505050505050505060405180910390f35b6102d7610c0e565b6002600033600160a060020a0316600160a060020a0316815260200190815260200160002080548060200260200160405190810160405280929190818152602001828054801561035057602002820191906000526020600020905b8154600160a060020a03168152600190910190602001808311610332575b505050505090505b90565b600354600160a060020a031681565b600081600160a060020a03811615801590610389575061038981610c06565b151561039457600080fd5b60038054600160a060020a031916600160a060020a0385811691909117918290551663e584de966000604051602001526040518163ffffffff1660e060020a028152600401602060405180830381600087803b15156103f257600080fd5b6102c65a03f1151561040357600080fd5b5050506040518051925050600160a060020a0333167f9ff61ae2738ff019e2ecee19645334d60548c332b79b2c8e316e15eb355c4dc98360405190815260200160405180910390a2505050565b600054600160a060020a031681565b81600160a060020a0381161580159061047c575061047c81610c06565b151561048757600080fd5b816000811161049557600080fd5b60038054600160a060020a031916600160a060020a03868116919091179182905516630eeb30dd8460006040516020015260405160e060020a63ffffffff84160281526004810191909152602401602060405180830381600087803b15156104fc57600080fd5b6102c65a03f1151561050d57600080fd5b50505060405180519050151561052257600080fd5b33600160a060020a03167f63e52bfe559751f84b25f54a5fb9a047e3412b951f2c6db1bdbe3f76cf197ed48460405190815260200160405180910390a250505050565b81600160a060020a03811615801590610582575061058281610c06565b151561058d57600080fd5b816000811161059b57600080fd5b60038054600160a060020a031916600160a060020a0386811691909117918290551663ef299b0b8460006040516020015260405160e060020a63ffffffff84160281526004810191909152602401602060405180830381600087803b151561060257600080fd5b6102c65a03f1151561061357600080fd5b50505060405180519050151561062857600080fd5b33600160a060020a03167fab072b17b98fef769c70139f5cfd791219052120cf7e41de0f678d4aca9778e18460405190815260200160405180910390a250505050565b600083600160a060020a038116151561068357600080fd5b83600160a060020a038116158015906106a057506106a081610c06565b15156106ab57600080fd5b83600081116106b957600080fd5b339350868487876106c8610c20565b600160a060020a0394851681529284166020840152921660408083019190915260608201929092526080019051809103906000f080151561070857600080fd5b60038054600160a060020a031916600160a060020a0392831617908190556107309116610c06565b151561073b57600080fd5b600160a060020a03841660009081526001602081905260409091208054909181016107668382610c30565b506000918252602080832060035492018054600160a060020a031916600160a060020a03938416179055908916825260029052604090208054600181016107ad8382610c30565b506000918252602090912060038054929091018054600160a060020a031916600160a060020a039384161790555488821691868116917fa1df915b8442d05811e14e9963bdfe437dceea6c3af491bab0b7fc499232f18f9116604051600160a060020a03909116815260200160405180910390a350505050505050565b610832610c0e565b6001600033600160a060020a0316600160a060020a0316815260200190815260200160002080548060200260200160405190810160405280929190818152602001828054801561035057602002820191906000526020600020908154600160a060020a03168152600190910190602001808311610332575050505050905090565b85600160a060020a038116158015906108d057506108d081610c06565b15156108db57600080fd5b85600081116108e957600080fd5b60038054600160a060020a031916600160a060020a038a811691909117918290551663f4da2db488888888886000604051602001526040518663ffffffff1660e060020a0281526004018086815260200180602001806020018381038352878782818152602001925080828437909101848103835285815260200190508585808284378201915050975050505050505050602060405180830381600087803b151561099357600080fd5b6102c65a03f115156109a457600080fd5b5050506040518051905015156109b957600080fd5b33600160a060020a03167f9ff61ae2738ff019e2ecee19645334d60548c332b79b2c8e316e15eb355c4dc98860405190815260200160405180910390a25050505050505050565b83600160a060020a03811615801590610a1d5750610a1d81610c06565b1515610a2857600080fd5b8360008111610a3657600080fd5b60038054600160a060020a031916600160a060020a0388811691909117918290551663030ba25d86868660006040516020015260405160e060020a63ffffffff8616028152600481018481526040602483019081526044830184905290916064018484808284378201915050945050505050602060405180830381600087803b1515610ac157600080fd5b6102c65a03f11515610ad257600080fd5b505050604051805190501515610ae757600080fd5b33600160a060020a03167f496c5d22aacd4871af93cb6e0c38d01ea0ddbafd85a11494732ffcbc5fe7f85a8660405190815260200160405180910390a2505050505050565b60008080808080808088600160a060020a03811615801590610b525750610b5281610c06565b1515610b5d57600080fd5b89600160a060020a03166330d281e0600060405161010001526040518163ffffffff1660e060020a02815260040161010060405180830381600087803b1515610ba557600080fd5b6102c65a03f11515610bb657600080fd5b505050604051805190602001805190602001805190602001805190602001805190602001805190602001805190602001805190509850985098509850985098509850985050919395975091939597565b6000903b1190565b60206040519081016040526000815290565b60405161113180610c7883390190565b815481835581811511610c5457600083815260209020610c54918101908301610c59565b505050565b61035891905b80821115610c735760008155600101610c5f565b509056006060604052600060065560006007556000600855341561001e57600080fd5b604051608080611131833981016040528080519190602001805191906020018051919060200180516009805461010060a860020a031916610100600160a060020a038781168202929092179283905592945060009350919004166318160ddd82604051602001526040518163ffffffff167c0100000000000000000000000000000000000000000000000000000000028152600401602060405180830381600087803b15156100cc57600080fd5b6102c65a03f115156100dd57600080fd5b505050604051805190501115156100f357600080fd5b60028054600160a060020a0319908116600160a060020a039687161790915560018054821694861694909417909355600080549093163390941693909317825550600391909155426004556009805460ff19169055610fd990819061015890396000f3006060604052600436106100ab5763ffffffff60e060020a600035041663030ba25d81146100b05780630b97bc86146100e65780630eeb30dd1461010b57806330d281e01461012157806343ddf5ff1461019857806367e404ce14610219578063e47c59021461022c578063e584de9614610282578063ef299b0b14610295578063f3f480d9146102ab578063f4da2db4146102be578063f7260d3e146102ec578063fc0c546a146102ff575b600080fd5b34156100bb57600080fd5b6100d2600480359060248035908101910135610312565b604051901515815260200160405180910390f35b34156100f157600080fd5b6100f961049f565b60405190815260200160405180910390f35b341561011657600080fd5b6100d26004356104a5565b341561012c57600080fd5b610134610524565b604051600160a060020a03808a168252888116602083015287166040820152606081018690526080810185905260a0810184600381111561017157fe5b60ff1681526020018381526020018281526020019850505050505050505060405180910390f35b34156101a357600080fd5b6101fd60048035600160a060020a03169060248035919060649060443590810190830135806020601f8201819004810201604051908101604052818152929190602084018383808284375094965061059095505050505050565b604051600160a060020a03909116815260200160405180910390f35b341561022457600080fd5b6101fd610796565b341561023757600080fd5b6101fd600480359060446024803590810190830135806020601f820181900481020160405190810160405281815292919060208401838380828437509496506107a595505050505050565b341561028d57600080fd5b6100f9610937565b34156102a057600080fd5b6100d26004356109d1565b34156102b657600080fd5b6100f9610b54565b34156102c957600080fd5b6100d2600480359060248035808201929081013591604435908101910135610b5a565b34156102f757600080fd5b6101fd610c95565b341561030a57600080fd5b6101fd610ca4565b600254600090819032600160a060020a0390811691161461033257600080fd5b60005433600160a060020a0390811691161461034d57600080fd5b600160095460ff16600381111561036057fe5b1461036a57600080fd5b60075460065461037f9163ffffffff610cb816565b85111561038b57600080fd5b6002546103d090600160a060020a0316868686806020601f82018190048102016040519081016040528181529291906020840183838082843750610590945050505050565b600154909150600160a060020a038083169116146103ed57600080fd5b600754610400908663ffffffff610cca16565b600755600954600254600160a060020a0361010090920482169163a9059cbb91168760006040516020015260405160e060020a63ffffffff8516028152600160a060020a0390921660048301526024820152604401602060405180830381600087803b151561046e57600080fd5b6102c65a03f1151561047f57600080fd5b50505060405180519050151561049457600080fd5b506001949350505050565b60045481565b60015460009032600160a060020a039081169116146104c357600080fd5b60005433600160a060020a039081169116146104de57600080fd5b600160095460ff1660038111156104f157fe5b146104fb57600080fd5b60065482111561050a57600080fd5b50426005556009805460ff19166002179055600855600190565b60008054819081908190819081908190819033600160a060020a0390811691161461054e57600080fd5b5050600154600254600954600354600454600654600754600160a060020a039687169d9587169c5061010085049096169a50919850965060ff90911694509250565b60008060006040517f737472696e67206d73674964000000000000000000000000000000000000000081527f6164647265737320726563656976657200000000000000000000000000000000600c8201527f75696e742062616c616e63650000000000000000000000000000000000000000601c8201527f6164647265737320636f6e747261637400000000000000000000000000000000602882015260380160405180910390208686306040517f53656e6465722042616c616e63652050726f6f66205369676e0000000000000081526c01000000000000000000000000600160a060020a0394851681026019830152602d820193909352921602604d82015260610160405180910390206040519182526020820152604090810190518091039020915030600160a060020a031663e47c5902838660006040516020015260405160e060020a63ffffffff851602815260048101838152604060248301908152909160440183818151815260200191508051906020019080838360005b8381101561072657808201518382015260200161070e565b50505050905090810190601f1680156107535780820380516001836020036101000a031916815260200191505b509350505050602060405180830381600087803b151561077257600080fd5b6102c65a03f1151561078357600080fd5b5050506040518051979650505050505050565b600154600160a060020a031681565b6000806000806107b3610f9b565b85516041146107c157600080fd5b6020860151935060408601519250606086015160001a9150601b8260ff1610156107ec57601b820191505b8160ff16601b148061080157508160ff16601c145b151561080c57600080fd5b6040805190810160405280601c81526020017f19457468657265756d205369676e6564204d6573736167653a0a333200000000815250905080876040518083805190602001908083835b602083106108755780518252601f199092019160209182019101610856565b6001836020036101000a03801982511681845116179092525050509190910192835250506020019050604051809103902096506001878386866040516000815260200160405260006040516020015260405193845260ff90921660208085019190915260408085019290925260608401929092526080909201915160208103908084039060008661646e5a03f1151561090d57600080fd5b5050602060405103519450600160a060020a038516151561092d57600080fd5b5050505092915050565b60015460009032600160a060020a0390811691161461095557600080fd5b60005433600160a060020a0390811691161461097057600080fd5b600260095460ff16600381111561098357fe5b1461098d57600080fd5b60035460055401421161099f57600080fd5b6001546002546008546109bf92600160a060020a03908116921690610ce0565b15156109ca57600080fd5b5060085490565b6000805433600160a060020a039081169116146109ed57600080fd5b60015432600160a060020a03908116911614610a0857600080fd5b6009546001548391600160a060020a0361010090910481169163dd62ed3e91163060006040516020015260405160e060020a63ffffffff8516028152600160a060020a03928316600482015291166024820152604401602060405180830381600087803b1515610a7757600080fd5b6102c65a03f11515610a8857600080fd5b5050506040518051905010151515610a9f57600080fd5b600954600154600160a060020a036101009092048216916323b872dd9116308560006040516020015260405160e060020a63ffffffff8616028152600160a060020a0393841660048201529190921660248201526044810191909152606401602060405180830381600087803b1515610b1757600080fd5b6102c65a03f11515610b2857600080fd5b505050604051805190501515610b3d57600080fd5b506006556009805460ff1916600190811790915590565b60035481565b6001546000908190819032600160a060020a0390811691161480610b8c575060025432600160a060020a039081169116145b1515610b9757600080fd5b60005433600160a060020a03908116911614610bb257600080fd5b600654881115610bc157600080fd5b600254610c0690600160a060020a0316898989806020601f82018190048102016040519081016040528181529291906020840183838082843750610590945050505050565b9150610c42828987878080601f016020809104026020016040519081016040528181529291906020840183838082843750610e06945050505050565b600254909150600160a060020a03808316911614610c5f57600080fd5b600154600254610c7c91600160a060020a0390811691168a610ce0565b1515610c8757600080fd5b506001979650505050505050565b600254600160a060020a031681565b6009546101009004600160a060020a031681565b600082821115610cc457fe5b50900390565b600082820183811015610cd957fe5b9392505050565b600080610cf860075484610cb890919063ffffffff16565b6009805460ff191660031790819055909150600160a060020a036101009091041663a9059cbb858360006040516020015260405160e060020a63ffffffff8516028152600160a060020a0390921660048301526024820152604401602060405180830381600087803b1515610d6c57600080fd5b6102c65a03f11515610d7d57600080fd5b505050604051805190501515610d9257600080fd5b600954600654610100909104600160a060020a03169063a9059cbb908790610dba9085610cb8565b60006040516020015260405160e060020a63ffffffff8516028152600160a060020a0390921660048301526024820152604401602060405180830381600087803b151561046e57600080fd5b60008060006040517f737472696e67206d73674964000000000000000000000000000000000000000081527f616464726573732073656e646572000000000000000000000000000000000000600c8201527f75696e742062616c616e63650000000000000000000000000000000000000000601a8201527f6164647265737320636f6e747261637400000000000000000000000000000000602682015260360160405180910390208686306040517f526563656976657220436c6f73696e67205369676e000000000000000000000081526c01000000000000000000000000600160a060020a039485168102601583015260298201939093529216026049820152605d0160405180910390206040519182526020820152604090810190518091039020915030600160a060020a031663e47c5902838660006040516020015260405160e060020a63ffffffff851602815260048101838152604060248301908152909160440183818151815260200191508051906020019080838360008381101561072657808201518382015260200161070e565b602060405190810160405260008152905600a165627a7a72305820e4ca990851e4b135393d9355954a5f4d3ddc289030d640bce9d54c66d288cc890029a165627a7a723058209f56a988ab210a37a584ee0d0b5966a2bfda1c434f0943f8df95ad53ef19f6070029",
  "source": "pragma solidity ^0.4.18;\n\nimport './Channel.sol';\nimport './lib/safeMath.sol';\n\ncontract Factory {\n    address public owner;\n    mapping(address => address[]) channelsAsSender;\n    mapping(address => address[]) channelsAsReceiver;\n\n    Channel public channel;\n\n    modifier nonZero(uint _param) {\n        require(_param > 0);\n        _;\n    }\n\n    modifier nonZeroAddress(address _addr) {\n        require(_addr != address(0));\n        _;\n    }\n\n    modifier isContractAddress(address _addr) {\n        require(_addr != address(0) && addressHasCode(_addr));\n        _;\n    }\n\n    event ChannelCreated(\n        address indexed _senderAddress,\n        address indexed _receiverAddress,\n        address _channelAddress);\n    \n    event ChannelRecharged(\n        address indexed _senderAddress,\n        uint _deposit);\n\n    event ChannelWithdraw(\n        address indexed _receiverAddress,\n        uint _withdrawnBalance);\n\n    event ChannelSettled(\n        address indexed _settleAddress,\n        uint _balance);\n\n    event ChannelChallenged(\n        address indexed _senderAddress,\n        uint _balance);\n\n    function Factory() public {\n        owner = msg.sender;\n    }\n\n\n    function createChannel (address _receiver, address _tokenAddress, uint _challengePeriod) \n    external\n    nonZeroAddress(_receiver) isContractAddress(_tokenAddress) nonZero(_challengePeriod)\n    {\n        address sender = msg.sender;\n        channel = new Channel(_receiver,  sender, _tokenAddress, _challengePeriod);\n        require(addressHasCode(channel));\n        channelsAsSender[sender].push(channel);\n        channelsAsReceiver[_receiver].push(channel);\n\n        ChannelCreated(sender, _receiver, channel);\n    }\n\n    function rechargeChannel(address _channelAddress, uint _deposit) \n    external\n    isContractAddress(_channelAddress) nonZero(_deposit) \n    {\n        channel = Channel(_channelAddress);\n        require(channel.recharge(_deposit));\n\n        ChannelRecharged(msg.sender, _deposit);\n    }\n\n    function withdrawFromChannel(address _channelAddress, uint _balance, bytes _balanceMsg) \n    external\n    isContractAddress(_channelAddress) nonZero(_balance) \n    {\n        channel = Channel(_channelAddress);\n        require(channel.withdraw(_balance, _balanceMsg));\n\n        ChannelWithdraw(msg.sender, _balance);\n    }\n\n    function channelMutualSettlement(address _channelAddress, uint _balance, bytes _balanceMsg, bytes _closingMsg) \n    external\n    isContractAddress(_channelAddress) nonZero(_balance) \n    {\n        channel = Channel(_channelAddress);\n        require(channel.mutualSettlement(_balance, _balanceMsg, _closingMsg));\n\n        ChannelSettled(msg.sender, _balance);\n    }\n\n    function channelChallengedSettlement(address _channelAddress, uint _balance) \n    external\n    isContractAddress(_channelAddress) nonZero(_balance) \n    {\n        channel = Channel(_channelAddress);\n        require(channel.challengedSettlement(_balance));\n\n        ChannelChallenged(msg.sender, _balance);\n    }\n\n    function channelAfterChallengeSettlement(address _channelAddress) \n    external\n    isContractAddress(_channelAddress)\n    {\n        channel = Channel(_channelAddress);\n        var balance = channel.afterChallengeSettle();\n\n        ChannelSettled(msg.sender, balance);\n    }\n\n    function getInfo(address _channelAddress) \n    external view \n    isContractAddress(_channelAddress)\n    returns (address, address, address, uint, uint, Channel.State, uint, uint)\n    {\n        return Channel(_channelAddress).getChannelInfo();\n    }\n\n    function getAllChannelsAsSender () external view returns (address[]) {\n        return channelsAsSender[msg.sender];\n    }\n\n    function getAllChannelsAsReceiver () external view returns (address[]) {\n        return channelsAsReceiver[msg.sender];\n    }\n    \n    function addressHasCode(address _contract) internal view returns (bool) {\n        uint size;\n        assembly {\n            size := extcodesize(_contract)\n        }\n        return size > 0;\n    }\n}",
  "sourcePath": "/home/aniket/projects/wandx/paymentchannel/contracts/Factory.sol",
  "compiler": {
    "name": "solc",
    "version": "0.4.18+commit.9cf6e910.Emscripten.clang"
  },
  "schemaVersion": "1.0.1",
  "updatedAt": "2018-02-21T12:11:18.476Z"
}