{
  "contractName": "Factory",
  "abi": [
    {
      "constant": true,
      "inputs": [],
      "name": "getAllChannelsAsReceiver",
      "outputs": [
        {
          "name": "",
          "type": "address[]"
        }
      ],
      "payable": false,
      "stateMutability": "view",
      "type": "function"
    },
    {
      "constant": true,
      "inputs": [],
      "name": "channel",
      "outputs": [
        {
          "name": "",
          "type": "address"
        }
      ],
      "payable": false,
      "stateMutability": "view",
      "type": "function"
    },
    {
      "constant": false,
      "inputs": [
        {
          "name": "_channelAddress",
          "type": "address"
        }
      ],
      "name": "channelAfterChallengeSettlement",
      "outputs": [],
      "payable": false,
      "stateMutability": "nonpayable",
      "type": "function"
    },
    {
      "constant": true,
      "inputs": [],
      "name": "owner",
      "outputs": [
        {
          "name": "",
          "type": "address"
        }
      ],
      "payable": false,
      "stateMutability": "view",
      "type": "function"
    },
    {
      "constant": false,
      "inputs": [
        {
          "name": "_channelAddress",
          "type": "address"
        },
        {
          "name": "_balance",
          "type": "uint256"
        }
      ],
      "name": "channelChallengedSettlement",
      "outputs": [],
      "payable": false,
      "stateMutability": "nonpayable",
      "type": "function"
    },
    {
      "constant": false,
      "inputs": [
        {
          "name": "_channelAddress",
          "type": "address"
        },
        {
          "name": "_balance",
          "type": "uint256"
        },
        {
          "name": "_v",
          "type": "uint8"
        },
        {
          "name": "_r",
          "type": "bytes32"
        },
        {
          "name": "_s",
          "type": "bytes32"
        }
      ],
      "name": "withdrawFromChannel",
      "outputs": [],
      "payable": false,
      "stateMutability": "nonpayable",
      "type": "function"
    },
    {
      "constant": false,
      "inputs": [
        {
          "name": "_channelAddress",
          "type": "address"
        },
        {
          "name": "_deposit",
          "type": "uint256"
        }
      ],
      "name": "rechargeChannel",
      "outputs": [],
      "payable": false,
      "stateMutability": "nonpayable",
      "type": "function"
    },
    {
      "constant": false,
      "inputs": [
        {
          "name": "_receiver",
          "type": "address"
        },
        {
          "name": "_tokenAddress",
          "type": "address"
        },
        {
          "name": "_challengePeriod",
          "type": "uint256"
        }
      ],
      "name": "createChannel",
      "outputs": [],
      "payable": false,
      "stateMutability": "nonpayable",
      "type": "function"
    },
    {
      "constant": true,
      "inputs": [],
      "name": "getAllChannelsAsSender",
      "outputs": [
        {
          "name": "",
          "type": "address[]"
        }
      ],
      "payable": false,
      "stateMutability": "view",
      "type": "function"
    },
    {
      "constant": true,
      "inputs": [
        {
          "name": "_channelAddress",
          "type": "address"
        }
      ],
      "name": "getInfo",
      "outputs": [
        {
          "name": "",
          "type": "address"
        },
        {
          "name": "",
          "type": "address"
        },
        {
          "name": "",
          "type": "address"
        },
        {
          "name": "",
          "type": "uint256"
        },
        {
          "name": "",
          "type": "uint256"
        },
        {
          "name": "",
          "type": "uint8"
        },
        {
          "name": "",
          "type": "uint256"
        },
        {
          "name": "",
          "type": "uint256"
        }
      ],
      "payable": false,
      "stateMutability": "view",
      "type": "function"
    },
    {
      "inputs": [],
      "payable": false,
      "stateMutability": "nonpayable",
      "type": "constructor"
    },
    {
      "anonymous": false,
      "inputs": [
        {
          "indexed": true,
          "name": "_senderAddress",
          "type": "address"
        },
        {
          "indexed": true,
          "name": "_receiverAddress",
          "type": "address"
        },
        {
          "indexed": false,
          "name": "_channelAddress",
          "type": "address"
        }
      ],
      "name": "ChannelCreated",
      "type": "event"
    },
    {
      "anonymous": false,
      "inputs": [
        {
          "indexed": true,
          "name": "_senderAddress",
          "type": "address"
        },
        {
          "indexed": false,
          "name": "_deposit",
          "type": "uint256"
        }
      ],
      "name": "ChannelRecharged",
      "type": "event"
    },
    {
      "anonymous": false,
      "inputs": [
        {
          "indexed": true,
          "name": "_receiverAddress",
          "type": "address"
        },
        {
          "indexed": false,
          "name": "_withdrawnBalance",
          "type": "uint256"
        }
      ],
      "name": "ChannelWithdraw",
      "type": "event"
    },
    {
      "anonymous": false,
      "inputs": [
        {
          "indexed": true,
          "name": "_settleAddress",
          "type": "address"
        },
        {
          "indexed": false,
          "name": "_balance",
          "type": "uint256"
        }
      ],
      "name": "ChannelSettled",
      "type": "event"
    },
    {
      "anonymous": false,
      "inputs": [
        {
          "indexed": true,
          "name": "_senderAddress",
          "type": "address"
        },
        {
          "indexed": false,
          "name": "_balance",
          "type": "uint256"
        }
      ],
      "name": "ChannelChallenged",
      "type": "event"
    }
  ],
  "bytecode": "0x6060604052341561000f57600080fd5b60008054600160a060020a033316600160a060020a03199091161790556115c38061003b6000396000f30060606040526004361061008a5763ffffffff60e060020a60003504166313a29393811461008f5780637bbdb96e146100f55780637f085cbc146101245780638da5cb5b146101455780638ef05104146101585780639625fc251461017a57806396ee4b27146101a8578063b0968416146101ca578063baadde82146101f2578063ffdd5cf114610205575b600080fd5b341561009a57600080fd5b6100a2610288565b60405160208082528190810183818151815260200191508051906020019060200280838360005b838110156100e15780820151838201526020016100c9565b505050509050019250505060405180910390f35b341561010057600080fd5b610108610314565b604051600160a060020a03909116815260200160405180910390f35b341561012f57600080fd5b610143600160a060020a0360043516610323565b005b341561015057600080fd5b610108610409565b341561016357600080fd5b610143600160a060020a0360043516602435610418565b341561018557600080fd5b610143600160a060020a036004351660243560ff6044351660643560843561051e565b34156101b357600080fd5b610143600160a060020a036004351660243561063e565b34156101d557600080fd5b610143600160a060020a0360043581169060243516604435610744565b34156101fd57600080fd5b6100a2610903565b341561021057600080fd5b610224600160a060020a036004351661098c565b604051600160a060020a03808a168252888116602083015287166040820152606081018690526080810185905260a0810184600381111561026157fe5b60ff1681526020018381526020018281526020019850505050505050505060405180910390f35b610290610a6e565b6002600033600160a060020a0316600160a060020a0316815260200190815260200160002080548060200260200160405190810160405280929190818152602001828054801561030957602002820191906000526020600020905b8154600160a060020a031681526001909101906020018083116102eb575b505050505090505b90565b600354600160a060020a031681565b600081600160a060020a03811615801590610342575061034281610a66565b151561034d57600080fd5b60038054600160a060020a031916600160a060020a0385811691909117918290551663e584de966000604051602001526040518163ffffffff1660e060020a028152600401602060405180830381600087803b15156103ab57600080fd5b6102c65a03f115156103bc57600080fd5b5050506040518051925050600160a060020a0333167f9ff61ae2738ff019e2ecee19645334d60548c332b79b2c8e316e15eb355c4dc98360405190815260200160405180910390a2505050565b600054600160a060020a031681565b81600160a060020a03811615801590610435575061043581610a66565b151561044057600080fd5b816000811161044e57600080fd5b60038054600160a060020a031916600160a060020a03868116919091179182905516630eeb30dd8460006040516020015260405160e060020a63ffffffff84160281526004810191909152602401602060405180830381600087803b15156104b557600080fd5b6102c65a03f115156104c657600080fd5b5050506040518051905015156104db57600080fd5b33600160a060020a03167f63e52bfe559751f84b25f54a5fb9a047e3412b951f2c6db1bdbe3f76cf197ed48460405190815260200160405180910390a250505050565b84600160a060020a0381161580159061053b575061053b81610a66565b151561054657600080fd5b846000811161055457600080fd5b60038054600160a060020a031916600160a060020a03898116919091179182905516635ebfdfc68787878760006040516020015260405160e060020a63ffffffff8716028152600481019490945260ff909216602484015260448301526064820152608401602060405180830381600087803b15156105d257600080fd5b6102c65a03f115156105e357600080fd5b5050506040518051905015156105f857600080fd5b33600160a060020a03167f496c5d22aacd4871af93cb6e0c38d01ea0ddbafd85a11494732ffcbc5fe7f85a8760405190815260200160405180910390a250505050505050565b81600160a060020a0381161580159061065b575061065b81610a66565b151561066657600080fd5b816000811161067457600080fd5b60038054600160a060020a031916600160a060020a0386811691909117918290551663ef299b0b8460006040516020015260405160e060020a63ffffffff84160281526004810191909152602401602060405180830381600087803b15156106db57600080fd5b6102c65a03f115156106ec57600080fd5b50505060405180519050151561070157600080fd5b33600160a060020a03167fab072b17b98fef769c70139f5cfd791219052120cf7e41de0f678d4aca9778e18460405190815260200160405180910390a250505050565b600083600160a060020a038116151561075c57600080fd5b83600160a060020a03811615801590610779575061077981610a66565b151561078457600080fd5b836000811161079257600080fd5b339350868487876107a1610a80565b600160a060020a0394851681529284166020840152921660408083019190915260608201929092526080019051809103906000f08015156107e157600080fd5b60038054600160a060020a031916600160a060020a0392831617908190556108099116610a66565b151561081457600080fd5b600160a060020a038416600090815260016020819052604090912080549091810161083f8382610a90565b506000918252602080832060035492018054600160a060020a031916600160a060020a03938416179055908916825260029052604090208054600181016108868382610a90565b506000918252602090912060038054929091018054600160a060020a031916600160a060020a039384161790555488821691868116917fa1df915b8442d05811e14e9963bdfe437dceea6c3af491bab0b7fc499232f18f9116604051600160a060020a03909116815260200160405180910390a350505050505050565b61090b610a6e565b6001600033600160a060020a0316600160a060020a0316815260200190815260200160002080548060200260200160405190810160405280929190818152602001828054801561030957602002820191906000526020600020908154600160a060020a031681526001909101906020018083116102eb575050505050905090565b60008080808080808088600160a060020a038116158015906109b257506109b281610a66565b15156109bd57600080fd5b89600160a060020a03166330d281e0600060405161010001526040518163ffffffff1660e060020a02815260040161010060405180830381600087803b1515610a0557600080fd5b6102c65a03f11515610a1657600080fd5b505050604051805190602001805190602001805190602001805190602001805190602001805190602001805190602001805190509850985098509850985098509850985050919395975091939597565b6000903b1190565b60206040519081016040526000815290565b604051610ac080610ad883390190565b815481835581811511610ab457600083815260209020610ab4918101908301610ab9565b505050565b61031191905b80821115610ad35760008155600101610abf565b509056006060604052600060065560006007556000600855341561001e57600080fd5b604051608080610ac0833981016040528080519190602001805191906020018051919060200180516009805461010060a860020a031916610100600160a060020a038781168202929092179283905592945060009350919004166318160ddd82604051602001526040518163ffffffff167c0100000000000000000000000000000000000000000000000000000000028152600401602060405180830381600087803b15156100cc57600080fd5b6102c65a03f115156100dd57600080fd5b505050604051805190501115156100f357600080fd5b60028054600160a060020a0319908116600160a060020a039687161790915560018054821694861694909417909355600080549093163390941693909317825550600391909155426004556009805460ff1916905561096890819061015890396000f3006060604052600436106100955763ffffffff60e060020a6000350416630b97bc86811461009a5780630eeb30dd146100bf57806330d281e0146100e95780635ebfdfc61461016057806367e404ce14610182578063d8695188146101b1578063e584de96146101df578063ef299b0b146101f2578063f3f480d914610208578063f7260d3e1461021b578063fc0c546a1461022e575b600080fd5b34156100a557600080fd5b6100ad610241565b60405190815260200160405180910390f35b34156100ca57600080fd5b6100d5600435610247565b604051901515815260200160405180910390f35b34156100f457600080fd5b6100fc6102c6565b604051600160a060020a03808a168252888116602083015287166040820152606081018690526080810185905260a0810184600381111561013957fe5b60ff1681526020018381526020018281526020019850505050505050505060405180910390f35b341561016b57600080fd5b6100d560043560ff60243516604435606435610332565b341561018d57600080fd5b61019561047f565b604051600160a060020a03909116815260200160405180910390f35b34156101bc57600080fd5b6100d5600160a060020a036004351660243560ff6044351660643560843561048e565b34156101ea57600080fd5b6100ad6105a8565b34156101fd57600080fd5b6100d5600435610642565b341561021357600080fd5b6100ad6107c5565b341561022657600080fd5b6101956107cb565b341561023957600080fd5b6101956107da565b60045481565b60015460009032600160a060020a0390811691161461026557600080fd5b60005433600160a060020a0390811691161461028057600080fd5b600160095460ff16600381111561029357fe5b1461029d57600080fd5b6006548211156102ac57600080fd5b50426005556009805460ff19166002179055600855600190565b60008054819081908190819081908190819033600160a060020a039081169116146102f057600080fd5b5050600154600254600954600354600454600654600754600160a060020a039687169d9587169c5061010085049096169a50919850965060ff90911694509250565b60025460009032600160a060020a0390811691161461035057600080fd5b60005433600160a060020a0390811691161461036b57600080fd5b600160095460ff16600381111561037e57fe5b1461038857600080fd5b60075460065461039d9163ffffffff6107ee16565b8511156103a957600080fd5b6002546103c290600160a060020a03168686868661048e565b15156103cd57600080fd5b6007546103e0908663ffffffff61080016565b600755600954600254600160a060020a0361010090920482169163a9059cbb91168760006040516020015260405160e060020a63ffffffff8516028152600160a060020a0390921660048301526024820152604401602060405180830381600087803b151561044e57600080fd5b6102c65a03f1151561045f57600080fd5b50505060405180519050151561047457600080fd5b506001949350505050565b600154600160a060020a031681565b6000808686306040516c01000000000000000000000000600160a060020a03948516810282526014820193909352921602603482015260480160405190819003902060018054919250600160a060020a0390911690826040517f19457468657265756d205369676e6564204d6573736167653a0a3332000000008152601c810191909152603c0160405180910390208787876040516000815260200160405260006040516020015260405193845260ff90921660208085019190915260408085019290925260608401929092526080909201915160208103908084039060008661646e5a03f1151561057f57600080fd5b505060206040510351600160a060020a03161461059b57600080fd5b5060019695505050505050565b60015460009032600160a060020a039081169116146105c657600080fd5b60005433600160a060020a039081169116146105e157600080fd5b600260095460ff1660038111156105f457fe5b146105fe57600080fd5b60035460055401421161061057600080fd5b60015460025460085461063092600160a060020a03908116921690610816565b151561063b57600080fd5b5060085490565b6000805433600160a060020a0390811691161461065e57600080fd5b60015432600160a060020a0390811691161461067957600080fd5b6009546001548391600160a060020a0361010090910481169163dd62ed3e91163060006040516020015260405160e060020a63ffffffff8516028152600160a060020a03928316600482015291166024820152604401602060405180830381600087803b15156106e857600080fd5b6102c65a03f115156106f957600080fd5b505050604051805190501015151561071057600080fd5b600954600154600160a060020a036101009092048216916323b872dd9116308560006040516020015260405160e060020a63ffffffff8616028152600160a060020a0393841660048201529190921660248201526044810191909152606401602060405180830381600087803b151561078857600080fd5b6102c65a03f1151561079957600080fd5b5050506040518051905015156107ae57600080fd5b506006556009805460ff1916600190811790915590565b60035481565b600254600160a060020a031681565b6009546101009004600160a060020a031681565b6000828211156107fa57fe5b50900390565b60008282018381101561080f57fe5b9392505050565b60008061082e600754846107ee90919063ffffffff16565b6009805460ff191660031790819055909150600160a060020a036101009091041663a9059cbb858360006040516020015260405160e060020a63ffffffff8516028152600160a060020a0390921660048301526024820152604401602060405180830381600087803b15156108a257600080fd5b6102c65a03f115156108b357600080fd5b5050506040518051905015156108c857600080fd5b600954600654610100909104600160a060020a03169063a9059cbb9087906108f090856107ee565b60006040516020015260405160e060020a63ffffffff8516028152600160a060020a0390921660048301526024820152604401602060405180830381600087803b151561044e57600080fd00a165627a7a72305820e5c6e2500d0476ac0299fdc57a921fea6738b3570f9a84d6730aac668f4f75ad0029a165627a7a7230582097c066c74439729d29db33951afecb1fd215a9c90fb4f89b7efff98258cfa85c0029",
  "source": "pragma solidity ^0.4.18;\n\nimport './Channel.sol';\nimport './lib/safeMath.sol';\n\ncontract Factory {\n    address public owner;\n    mapping(address => address[]) channelsAsSender;\n    mapping(address => address[]) channelsAsReceiver;\n\n    Channel public channel;\n\n    modifier nonZero(uint _param) {\n        require(_param > 0);\n        _;\n    }\n\n    modifier nonZeroAddress(address _addr) {\n        require(_addr != address(0));\n        _;\n    }\n\n    modifier isContractAddress(address _addr) {\n        require(_addr != address(0) && addressHasCode(_addr));\n        _;\n    }\n\n    event ChannelCreated(\n        address indexed _senderAddress,\n        address indexed _receiverAddress,\n        address _channelAddress);\n    \n    event ChannelRecharged(\n        address indexed _senderAddress,\n        uint _deposit);\n\n    event ChannelWithdraw(\n        address indexed _receiverAddress,\n        uint _withdrawnBalance);\n\n    event ChannelSettled(\n        address indexed _settleAddress,\n        uint _balance);\n\n    event ChannelChallenged(\n        address indexed _senderAddress,\n        uint _balance);\n\n    function Factory() public {\n        owner = msg.sender;\n    }\n\n\n    function createChannel (address _receiver, address _tokenAddress, uint _challengePeriod) \n    external\n    nonZeroAddress(_receiver) isContractAddress(_tokenAddress) nonZero(_challengePeriod)\n    {\n        address sender = msg.sender;\n        channel = new Channel(_receiver,  sender, _tokenAddress, _challengePeriod);\n        require(addressHasCode(channel));\n        channelsAsSender[sender].push(channel);\n        channelsAsReceiver[_receiver].push(channel);\n\n        ChannelCreated(sender, _receiver, channel);\n    }\n\n    function rechargeChannel(address _channelAddress, uint _deposit) \n    external\n    isContractAddress(_channelAddress) nonZero(_deposit) \n    {\n        channel = Channel(_channelAddress);\n        require(channel.recharge(_deposit));\n\n        ChannelRecharged(msg.sender, _deposit);\n    }\n\n    function withdrawFromChannel(address _channelAddress, uint _balance, uint8 _v, bytes32 _r, bytes32 _s) \n    external\n    isContractAddress(_channelAddress) nonZero(_balance) \n    {\n        channel = Channel(_channelAddress);\n        require(channel.withdraw(_balance, _v, _r, _s));\n\n        ChannelWithdraw(msg.sender, _balance);\n    }\n\n    // function channelMutualSettlement(address _channelAddress, uint _balance, bytes _balanceMsg, bytes _closingMsg) \n    // external\n    // isContractAddress(_channelAddress) nonZero(_balance) \n    // {\n    //     channel = Channel(_channelAddress);\n    //     require(channel.mutualSettlement(_balance, _balanceMsg, _closingMsg));\n\n    //     ChannelSettled(msg.sender, _balance);\n    // }\n\n    function channelChallengedSettlement(address _channelAddress, uint _balance) \n    external\n    isContractAddress(_channelAddress) nonZero(_balance) \n    {\n        channel = Channel(_channelAddress);\n        require(channel.challengedSettlement(_balance));\n\n        ChannelChallenged(msg.sender, _balance);\n    }\n\n    function channelAfterChallengeSettlement(address _channelAddress) \n    external\n    isContractAddress(_channelAddress)\n    {\n        channel = Channel(_channelAddress);\n        var balance = channel.afterChallengeSettle();\n\n        ChannelSettled(msg.sender, balance);\n    }\n\n    function getInfo(address _channelAddress) \n    external view \n    isContractAddress(_channelAddress)\n    returns (address, address, address, uint, uint, Channel.State, uint, uint)\n    {\n        return Channel(_channelAddress).getChannelInfo();\n    }\n\n    function getAllChannelsAsSender () external view returns (address[]) {\n        return channelsAsSender[msg.sender];\n    }\n\n    function getAllChannelsAsReceiver () external view returns (address[]) {\n        return channelsAsReceiver[msg.sender];\n    }\n    \n    function addressHasCode(address _contract) internal view returns (bool) {\n        uint size;\n        assembly {\n            size := extcodesize(_contract)\n        }\n        return size > 0;\n    }\n}",
  "sourcePath": "/Users/satyamagrawal/Repositories/paymentchannel/contracts/Factory.sol",
  "compiler": {
    "name": "solc",
    "version": "0.4.18+commit.9cf6e910.Emscripten.clang"
  },
  "schemaVersion": "1.0.1",
  "updatedAt": "2018-02-22T08:27:49.587Z"
}